{
  "contractName": "Voting",
  "abi": [
    {
      "anonymous": false,
      "inputs": [
        {
          "indexed": true,
          "internalType": "address",
          "name": "previousOwner",
          "type": "address"
        },
        {
          "indexed": true,
          "internalType": "address",
          "name": "newOwner",
          "type": "address"
        }
      ],
      "name": "OwnershipTransferred",
      "type": "event"
    },
    {
      "anonymous": false,
      "inputs": [
        {
          "indexed": false,
          "internalType": "uint256",
          "name": "proposalId",
          "type": "uint256"
        }
      ],
      "name": "ProposalRegistered",
      "type": "event"
    },
    {
      "anonymous": false,
      "inputs": [
        {
          "indexed": false,
          "internalType": "address",
          "name": "voter",
          "type": "address"
        },
        {
          "indexed": false,
          "internalType": "uint256",
          "name": "proposalId",
          "type": "uint256"
        }
      ],
      "name": "Voted",
      "type": "event"
    },
    {
      "anonymous": false,
      "inputs": [
        {
          "indexed": false,
          "internalType": "address",
          "name": "voterAddress",
          "type": "address"
        }
      ],
      "name": "VoterRegistered",
      "type": "event"
    },
    {
      "anonymous": false,
      "inputs": [
        {
          "indexed": false,
          "internalType": "enum Voting.WorkflowStatus",
          "name": "previousStatus",
          "type": "uint8"
        },
        {
          "indexed": false,
          "internalType": "enum Voting.WorkflowStatus",
          "name": "newStatus",
          "type": "uint8"
        }
      ],
      "name": "WorkflowStatusChange",
      "type": "event"
    },
    {
      "inputs": [],
      "name": "owner",
      "outputs": [
        {
          "internalType": "address",
          "name": "",
          "type": "address"
        }
      ],
      "stateMutability": "view",
      "type": "function",
      "constant": true
    },
    {
      "inputs": [],
      "name": "renounceOwnership",
      "outputs": [],
      "stateMutability": "nonpayable",
      "type": "function"
    },
    {
      "inputs": [
        {
          "internalType": "address",
          "name": "newOwner",
          "type": "address"
        }
      ],
      "name": "transferOwnership",
      "outputs": [],
      "stateMutability": "nonpayable",
      "type": "function"
    },
    {
      "inputs": [
        {
          "internalType": "address",
          "name": "_address",
          "type": "address"
        }
      ],
      "name": "isVoter",
      "outputs": [
        {
          "internalType": "bool",
          "name": "",
          "type": "bool"
        }
      ],
      "stateMutability": "view",
      "type": "function",
      "constant": true
    },
    {
      "inputs": [],
      "name": "getWorkflowStatus",
      "outputs": [
        {
          "internalType": "enum Voting.WorkflowStatus",
          "name": "",
          "type": "uint8"
        }
      ],
      "stateMutability": "view",
      "type": "function",
      "constant": true
    },
    {
      "inputs": [
        {
          "internalType": "uint256",
          "name": "_proposalId",
          "type": "uint256"
        }
      ],
      "name": "getOneProposal",
      "outputs": [
        {
          "components": [
            {
              "internalType": "string",
              "name": "description",
              "type": "string"
            },
            {
              "internalType": "uint256",
              "name": "voteCount",
              "type": "uint256"
            }
          ],
          "internalType": "struct Voting.Proposal",
          "name": "",
          "type": "tuple"
        }
      ],
      "stateMutability": "view",
      "type": "function",
      "constant": true
    },
    {
      "inputs": [],
      "name": "getProposalsLength",
      "outputs": [
        {
          "internalType": "uint256",
          "name": "",
          "type": "uint256"
        }
      ],
      "stateMutability": "view",
      "type": "function",
      "constant": true
    },
    {
      "inputs": [
        {
          "internalType": "address[]",
          "name": "_voters",
          "type": "address[]"
        }
      ],
      "name": "registerVoters",
      "outputs": [],
      "stateMutability": "nonpayable",
      "type": "function"
    },
    {
      "inputs": [],
      "name": "startProposalsRegistration",
      "outputs": [],
      "stateMutability": "nonpayable",
      "type": "function"
    },
    {
      "inputs": [],
      "name": "endProposalsRegistration",
      "outputs": [],
      "stateMutability": "nonpayable",
      "type": "function"
    },
    {
      "inputs": [],
      "name": "startVotingSession",
      "outputs": [],
      "stateMutability": "nonpayable",
      "type": "function"
    },
    {
      "inputs": [],
      "name": "endVotingSession",
      "outputs": [],
      "stateMutability": "nonpayable",
      "type": "function"
    },
    {
      "inputs": [
        {
          "internalType": "string",
          "name": "_description",
          "type": "string"
        }
      ],
      "name": "registerProposal",
      "outputs": [],
      "stateMutability": "nonpayable",
      "type": "function"
    },
    {
      "inputs": [
        {
          "internalType": "uint256",
          "name": "_proposalId",
          "type": "uint256"
        }
      ],
      "name": "vote",
      "outputs": [],
      "stateMutability": "nonpayable",
      "type": "function"
    },
    {
      "inputs": [],
      "name": "tallyVotes",
      "outputs": [],
      "stateMutability": "nonpayable",
      "type": "function"
    },
    {
      "inputs": [],
      "name": "test",
      "outputs": [
        {
          "internalType": "uint256",
          "name": "",
          "type": "uint256"
        }
      ],
      "stateMutability": "pure",
      "type": "function",
      "constant": true
    }
  ],
  "bytecode": "0x60806040523480156200001157600080fd5b5062000032620000266200003860201b60201c565b6200004060201b60201c565b62000104565b600033905090565b60008060009054906101000a900473ffffffffffffffffffffffffffffffffffffffff169050816000806101000a81548173ffffffffffffffffffffffffffffffffffffffff021916908373ffffffffffffffffffffffffffffffffffffffff1602179055508173ffffffffffffffffffffffffffffffffffffffff168173ffffffffffffffffffffffffffffffffffffffff167f8be0079c531659141344cd1fd0a4f28419497f9722a3daafe3b4186f6b6457e060405160405180910390a35050565b61250c80620001146000396000f3fe608060405234801561001057600080fd5b50600436106101005760003560e01c8063a7bfab1611610097578063ee74c67811610066578063ee74c67814610227578063f2fde38b14610231578063f75d64a61461024d578063f8a8fd6d1461026b57610100565b8063a7bfab16146101d9578063bc378a73146101e3578063d55ec9c114610201578063e09b8c791461021d57610100565b8063715018a6116100d3578063715018a6146101515780638da5cb5b1461015b578063a2788cce14610179578063a7771ee3146101a957610100565b80630121b93f146101055780632f95355b14610121578063378a21781461013d5780636c29744514610147575b600080fd5b61011f600480360381019061011a91906112c3565b610289565b005b61013b60048036038101906101369190611436565b6104c1565b005b6101456107d2565b005b61014f610906565b005b6101596109fa565b005b610163610a0e565b60405161017091906114c0565b60405180910390f35b610193600480360381019061018e91906112c3565b610a37565b6040516101a091906115a6565b60405180910390f35b6101c360048036038101906101be91906115f4565b610b0f565b6040516101d0919061163c565b60405180910390f35b6101e1610b79565b005b6101eb610c6c565b6040516101f89190611666565b60405180910390f35b61021b60048036038101906102169190611749565b610c79565b005b610225610e8a565b005b61022f610f7e565b005b61024b600480360381019061024691906115f4565b611072565b005b6102556110f5565b6040516102629190611809565b60405180910390f35b61027361110c565b6040516102809190611666565b60405180910390f35b600260003373ffffffffffffffffffffffffffffffffffffffff1673ffffffffffffffffffffffffffffffffffffffff16815260200190815260200160002060000160009054906101000a900460ff16610318576040517f08c379a000000000000000000000000000000000000000000000000000000000815260040161030f90611881565b60405180910390fd5b6003600581111561032c5761032b611792565b5b600460009054906101000a900460ff16600581111561034e5761034d611792565b5b1461038e576040517f08c379a000000000000000000000000000000000000000000000000000000000815260040161038590611913565b60405180910390fd5b6000600260003373ffffffffffffffffffffffffffffffffffffffff1673ffffffffffffffffffffffffffffffffffffffff16815260200190815260200160002090508060000160019054906101000a900460ff1615610423576040517f08c379a000000000000000000000000000000000000000000000000000000000815260040161041a9061197f565b60405180910390fd5b60018160000160016101000a81548160ff0219169083151502179055508181600101819055506003828154811061045d5761045c61199f565b5b9060005260206000209060020201600101600081548092919061047f906119fd565b91905055507f4d99b957a2bc29a30ebd96a7be8e68fe50a3c701db28a91436490b7d53870ca433836040516104b5929190611a45565b60405180910390a15050565b600260003373ffffffffffffffffffffffffffffffffffffffff1673ffffffffffffffffffffffffffffffffffffffff16815260200190815260200160002060000160009054906101000a900460ff16610550576040517f08c379a000000000000000000000000000000000000000000000000000000000815260040161054790611881565b60405180910390fd5b6001600581111561056457610563611792565b5b600460009054906101000a900460ff16600581111561058657610585611792565b5b146105c6576040517f08c379a00000000000000000000000000000000000000000000000000000000081526004016105bd90611ae0565b60405180910390fd5b7fc5d2460186f7233c927e7db2dcc703c0e500b653ca82273b7bfad8045d85a470816040516020016105f89190611b3c565b604051602081830303815290604052805190602001200361064e576040517f08c379a000000000000000000000000000000000000000000000000000000000815260040161064590611b9f565b60405180910390fd5b60005b6003805490508110156107ce578160405160200161066f9190611b3c565b60405160208183030381529060405280519060200120600382815481106106995761069861199f565b5b90600052602060002090600202016000016040516020016106ba9190611cb7565b6040516020818303038152906040528051906020012003610710576040517f08c379a000000000000000000000000000000000000000000000000000000000815260040161070790611d1a565b60405180910390fd5b600360405180604001604052808481526020016000815250908060018154018082558091505060019003906000526020600020906002020160009091909190915060008201518160000190816107669190611ed1565b506020820151816001015550507f92e393e9b54e2f801d3ea4beb0c5e71a21cc34a5d34b77d0fb8a3aa1650dc18f60016003805490506107a69190611fa3565b6040516107b39190611666565b60405180910390a180806107c6906119fd565b915050610651565b5050565b6107da611115565b600460058111156107ee576107ed611792565b5b600460009054906101000a900460ff1660058111156108105761080f611792565b5b14610850576040517f08c379a000000000000000000000000000000000000000000000000000000000815260040161084790612049565b60405180910390fd5b60008060005b6003805490508110156108cf5782600382815481106108785761087761199f565b5b90600052602060002090600202016001015411156108bc57600381815481106108a4576108a361199f565b5b90600052602060002090600202016001015492508091505b80806108c7906119fd565b915050610856565b50806001819055506005600460006101000a81548160ff021916908360058111156108fd576108fc611792565b5b02179055505050565b61090e611115565b6001600581111561092257610921611792565b5b600460009054906101000a900460ff16600581111561094457610943611792565b5b14610984576040517f08c379a000000000000000000000000000000000000000000000000000000000815260040161097b906120db565b60405180910390fd5b6002600460006101000a81548160ff021916908360058111156109aa576109a9611792565b5b02179055507f0a97a4ee45751e2abf3e4fc8946939630b11b371ea8ae39ccdc3056e98f5cc3f6001600460009054906101000a900460ff166040516109f09291906120fb565b60405180910390a1565b610a02611115565b610a0c6000611193565b565b60008060009054906101000a900473ffffffffffffffffffffffffffffffffffffffff16905090565b610a3f61125f565b60038281548110610a5357610a5261199f565b5b9060005260206000209060020201604051806040016040529081600082018054610a7c90611bee565b80601f0160208091040260200160405190810160405280929190818152602001828054610aa890611bee565b8015610af55780601f10610aca57610100808354040283529160200191610af5565b820191906000526020600020905b815481529060010190602001808311610ad857829003601f168201915b505050505081526020016001820154815250509050919050565b6000600260008373ffffffffffffffffffffffffffffffffffffffff1673ffffffffffffffffffffffffffffffffffffffff16815260200190815260200160002060000160009054906101000a900460ff1615610b6f5760019050610b74565b600090505b919050565b610b81611115565b60036005811115610b9557610b94611792565b5b600460009054906101000a900460ff166005811115610bb757610bb6611792565b5b14610bf7576040517f08c379a0000000000000000000000000000000000000000000000000000000008152600401610bee90612196565b60405180910390fd5b60048060006101000a81548160ff02191690836005811115610c1c57610c1b611792565b5b02179055507f0a97a4ee45751e2abf3e4fc8946939630b11b371ea8ae39ccdc3056e98f5cc3f6003600460009054906101000a900460ff16604051610c629291906120fb565b60405180910390a1565b6000600380549050905090565b610c81611115565b60006005811115610c9557610c94611792565b5b600460009054906101000a900460ff166005811115610cb757610cb6611792565b5b14610cf7576040517f08c379a0000000000000000000000000000000000000000000000000000000008152600401610cee90612228565b60405180910390fd5b60005b8151811015610e865760026000838381518110610d1a57610d1961199f565b5b602002602001015173ffffffffffffffffffffffffffffffffffffffff1673ffffffffffffffffffffffffffffffffffffffff16815260200190815260200160002060000160009054906101000a900460ff1615610dad576040517f08c379a0000000000000000000000000000000000000000000000000000000008152600401610da490612294565b60405180910390fd5b600160026000848481518110610dc657610dc561199f565b5b602002602001015173ffffffffffffffffffffffffffffffffffffffff1673ffffffffffffffffffffffffffffffffffffffff16815260200190815260200160002060000160006101000a81548160ff0219169083151502179055507fb6be2187d059cc2a55fe29e0e503b566e1e0f8c8780096e185429350acffd3dd828281518110610e5657610e5561199f565b5b6020026020010151604051610e6b91906114c0565b60405180910390a18080610e7e906119fd565b915050610cfa565b5050565b610e92611115565b60006005811115610ea657610ea5611792565b5b600460009054906101000a900460ff166005811115610ec857610ec7611792565b5b14610f08576040517f08c379a0000000000000000000000000000000000000000000000000000000008152600401610eff90612326565b60405180910390fd5b6001600460006101000a81548160ff02191690836005811115610f2e57610f2d611792565b5b02179055507f0a97a4ee45751e2abf3e4fc8946939630b11b371ea8ae39ccdc3056e98f5cc3f6000600460009054906101000a900460ff16604051610f749291906120fb565b60405180910390a1565b610f86611115565b60026005811115610f9a57610f99611792565b5b600460009054906101000a900460ff166005811115610fbc57610fbb611792565b5b14610ffc576040517f08c379a0000000000000000000000000000000000000000000000000000000008152600401610ff3906123b8565b60405180910390fd5b6003600460006101000a81548160ff0219169083600581111561102257611021611792565b5b02179055507f0a97a4ee45751e2abf3e4fc8946939630b11b371ea8ae39ccdc3056e98f5cc3f6002600460009054906101000a900460ff166040516110689291906120fb565b60405180910390a1565b61107a611115565b600073ffffffffffffffffffffffffffffffffffffffff168173ffffffffffffffffffffffffffffffffffffffff16036110e9576040517f08c379a00000000000000000000000000000000000000000000000000000000081526004016110e09061244a565b60405180910390fd5b6110f281611193565b50565b6000600460009054906101000a900460ff16905090565b60006001905090565b61111d611257565b73ffffffffffffffffffffffffffffffffffffffff1661113b610a0e565b73ffffffffffffffffffffffffffffffffffffffff1614611191576040517f08c379a0000000000000000000000000000000000000000000000000000000008152600401611188906124b6565b60405180910390fd5b565b60008060009054906101000a900473ffffffffffffffffffffffffffffffffffffffff169050816000806101000a81548173ffffffffffffffffffffffffffffffffffffffff021916908373ffffffffffffffffffffffffffffffffffffffff1602179055508173ffffffffffffffffffffffffffffffffffffffff168173ffffffffffffffffffffffffffffffffffffffff167f8be0079c531659141344cd1fd0a4f28419497f9722a3daafe3b4186f6b6457e060405160405180910390a35050565b600033905090565b604051806040016040528060608152602001600081525090565b6000604051905090565b600080fd5b600080fd5b6000819050919050565b6112a08161128d565b81146112ab57600080fd5b50565b6000813590506112bd81611297565b92915050565b6000602082840312156112d9576112d8611283565b5b60006112e7848285016112ae565b91505092915050565b600080fd5b600080fd5b6000601f19601f8301169050919050565b7f4e487b7100000000000000000000000000000000000000000000000000000000600052604160045260246000fd5b611343826112fa565b810181811067ffffffffffffffff821117156113625761136161130b565b5b80604052505050565b6000611375611279565b9050611381828261133a565b919050565b600067ffffffffffffffff8211156113a1576113a061130b565b5b6113aa826112fa565b9050602081019050919050565b82818337600083830152505050565b60006113d96113d484611386565b61136b565b9050828152602081018484840111156113f5576113f46112f5565b5b6114008482856113b7565b509392505050565b600082601f83011261141d5761141c6112f0565b5b813561142d8482602086016113c6565b91505092915050565b60006020828403121561144c5761144b611283565b5b600082013567ffffffffffffffff81111561146a57611469611288565b5b61147684828501611408565b91505092915050565b600073ffffffffffffffffffffffffffffffffffffffff82169050919050565b60006114aa8261147f565b9050919050565b6114ba8161149f565b82525050565b60006020820190506114d560008301846114b1565b92915050565b600081519050919050565b600082825260208201905092915050565b60005b838110156115155780820151818401526020810190506114fa565b60008484015250505050565b600061152c826114db565b61153681856114e6565b93506115468185602086016114f7565b61154f816112fa565b840191505092915050565b6115638161128d565b82525050565b600060408301600083015184820360008601526115868282611521565b915050602083015161159b602086018261155a565b508091505092915050565b600060208201905081810360008301526115c08184611569565b905092915050565b6115d18161149f565b81146115dc57600080fd5b50565b6000813590506115ee816115c8565b92915050565b60006020828403121561160a57611609611283565b5b6000611618848285016115df565b91505092915050565b60008115159050919050565b61163681611621565b82525050565b6000602082019050611651600083018461162d565b92915050565b6116608161128d565b82525050565b600060208201905061167b6000830184611657565b92915050565b600067ffffffffffffffff82111561169c5761169b61130b565b5b602082029050602081019050919050565b600080fd5b60006116c56116c084611681565b61136b565b905080838252602082019050602084028301858111156116e8576116e76116ad565b5b835b8181101561171157806116fd88826115df565b8452602084019350506020810190506116ea565b5050509392505050565b600082601f8301126117305761172f6112f0565b5b81356117408482602086016116b2565b91505092915050565b60006020828403121561175f5761175e611283565b5b600082013567ffffffffffffffff81111561177d5761177c611288565b5b6117898482850161171b565b91505092915050565b7f4e487b7100000000000000000000000000000000000000000000000000000000600052602160045260246000fd5b600681106117d2576117d1611792565b5b50565b60008190506117e3826117c1565b919050565b60006117f3826117d5565b9050919050565b611803816117e8565b82525050565b600060208201905061181e60008301846117fa565b92915050565b600082825260208201905092915050565b7f596f7520617265206e6f74207265676973746572656420746f20766f74652e00600082015250565b600061186b601f83611824565b915061187682611835565b602082019050919050565b6000602082019050818103600083015261189a8161185e565b9050919050565b7f54686520766f74696e672073657373696f6e206973206e6f742061637469766560008201527f2e00000000000000000000000000000000000000000000000000000000000000602082015250565b60006118fd602183611824565b9150611908826118a1565b604082019050919050565b6000602082019050818103600083015261192c816118f0565b9050919050565b7f596f75206861766520616c726561647920766f7465642e000000000000000000600082015250565b6000611969601783611824565b915061197482611933565b602082019050919050565b600060208201905081810360008301526119988161195c565b9050919050565b7f4e487b7100000000000000000000000000000000000000000000000000000000600052603260045260246000fd5b7f4e487b7100000000000000000000000000000000000000000000000000000000600052601160045260246000fd5b6000611a088261128d565b91507fffffffffffffffffffffffffffffffffffffffffffffffffffffffffffffffff8203611a3a57611a396119ce565b5b600182019050919050565b6000604082019050611a5a60008301856114b1565b611a676020830184611657565b9392505050565b7f50726f706f73616c7320726567697374726174696f6e206973206e6f7420616360008201527f746976652e000000000000000000000000000000000000000000000000000000602082015250565b6000611aca602583611824565b9150611ad582611a6e565b604082019050919050565b60006020820190508181036000830152611af981611abd565b9050919050565b600081905092915050565b6000611b16826114db565b611b208185611b00565b9350611b308185602086016114f7565b80840191505092915050565b6000611b488284611b0b565b915081905092915050565b7f50726f706f73616c2063616e2774206265206e756c6c00000000000000000000600082015250565b6000611b89601683611824565b9150611b9482611b53565b602082019050919050565b60006020820190508181036000830152611bb881611b7c565b9050919050565b7f4e487b7100000000000000000000000000000000000000000000000000000000600052602260045260246000fd5b60006002820490506001821680611c0657607f821691505b602082108103611c1957611c18611bbf565b5b50919050565b60008190508160005260206000209050919050565b60008154611c4181611bee565b611c4b8186611b00565b94506001821660008114611c665760018114611c7b57611cae565b60ff1983168652811515820286019350611cae565b611c8485611c1f565b60005b83811015611ca657815481890152600182019150602081019050611c87565b838801955050505b50505092915050565b6000611cc38284611c34565b915081905092915050565b7f50726f706f73616c20616c726561647920726567697374657265642e00000000600082015250565b6000611d04601c83611824565b9150611d0f82611cce565b602082019050919050565b60006020820190508181036000830152611d3381611cf7565b9050919050565b60006020601f8301049050919050565b600082821b905092915050565b600060088302611d877fffffffffffffffffffffffffffffffffffffffffffffffffffffffffffffffff82611d4a565b611d918683611d4a565b95508019841693508086168417925050509392505050565b6000819050919050565b6000611dce611dc9611dc48461128d565b611da9565b61128d565b9050919050565b6000819050919050565b611de883611db3565b611dfc611df482611dd5565b848454611d57565b825550505050565b600090565b611e11611e04565b611e1c818484611ddf565b505050565b5b81811015611e4057611e35600082611e09565b600181019050611e22565b5050565b601f821115611e8557611e5681611c1f565b611e5f84611d3a565b81016020851015611e6e578190505b611e82611e7a85611d3a565b830182611e21565b50505b505050565b600082821c905092915050565b6000611ea860001984600802611e8a565b1980831691505092915050565b6000611ec18383611e97565b9150826002028217905092915050565b611eda826114db565b67ffffffffffffffff811115611ef357611ef261130b565b5b611efd8254611bee565b611f08828285611e44565b600060209050601f831160018114611f3b5760008415611f29578287015190505b611f338582611eb5565b865550611f9b565b601f198416611f4986611c1f565b60005b82811015611f7157848901518255600182019150602085019450602081019050611f4c565b86831015611f8e5784890151611f8a601f891682611e97565b8355505b6001600288020188555050505b505050505050565b6000611fae8261128d565b9150611fb98361128d565b9250828203905081811115611fd157611fd06119ce565b5b92915050565b7f54686520766f74696e672073657373696f6e206973207374696c6c206163746960008201527f76652e0000000000000000000000000000000000000000000000000000000000602082015250565b6000612033602383611824565b915061203e82611fd7565b604082019050919050565b6000602082019050818103600083015261206281612026565b9050919050565b7f43616e6e6f7420656e642070726f706f73616c7320726567697374726174696f60008201527f6e20617420746869732074696d652e0000000000000000000000000000000000602082015250565b60006120c5602f83611824565b91506120d082612069565b604082019050919050565b600060208201905081810360008301526120f4816120b8565b9050919050565b600060408201905061211060008301856117fa565b61211d60208301846117fa565b9392505050565b7f43616e6e6f7420656e6420766f74696e672073657373696f6e2061742074686960008201527f732074696d652e00000000000000000000000000000000000000000000000000602082015250565b6000612180602783611824565b915061218b82612124565b604082019050919050565b600060208201905081810360008301526121af81612173565b9050919050565b7f43616e6e6f7420726567697374657220766f746572732061742074686973207460008201527f696d652e00000000000000000000000000000000000000000000000000000000602082015250565b6000612212602483611824565b915061221d826121b6565b604082019050919050565b6000602082019050818103600083015261224181612205565b9050919050565b7f566f74657220616c726561647920726567697374657265642e00000000000000600082015250565b600061227e601983611824565b915061228982612248565b602082019050919050565b600060208201905081810360008301526122ad81612271565b9050919050565b7f43616e6e6f742073746172742070726f706f73616c732072656769737472617460008201527f696f6e20617420746869732074696d652e000000000000000000000000000000602082015250565b6000612310603183611824565b915061231b826122b4565b604082019050919050565b6000602082019050818103600083015261233f81612303565b9050919050565b7f43616e6e6f7420737461727420766f74696e672073657373696f6e206174207460008201527f6869732074696d652e0000000000000000000000000000000000000000000000602082015250565b60006123a2602983611824565b91506123ad82612346565b604082019050919050565b600060208201905081810360008301526123d181612395565b9050919050565b7f4f776e61626c653a206e6577206f776e657220697320746865207a65726f206160008201527f6464726573730000000000000000000000000000000000000000000000000000602082015250565b6000612434602683611824565b915061243f826123d8565b604082019050919050565b6000602082019050818103600083015261246381612427565b9050919050565b7f4f776e61626c653a2063616c6c6572206973206e6f7420746865206f776e6572600082015250565b60006124a0602083611824565b91506124ab8261246a565b602082019050919050565b600060208201905081810360008301526124cf81612493565b905091905056fea2646970667358221220b73c6bb8b679b7723343f5aba70a88ac93bcc3bfbf198f71e6bafe0405c1742364736f6c63430008130033",
  "immutableReferences": {},
  "source": "// SPDX-License-Identifier: GPL-3.0\r\npragma solidity ^0.8.4;\r\n\r\nimport \"@openzeppelin/contracts/access/Ownable.sol\";\r\n\r\n/// @title A voting system\r\n/// @author Wsh on est vraiment 8 ? / Modified by Nathan\r\n/// @notice This system permit users to make proposals and vote them\r\ncontract Voting is Ownable {\r\n\r\n    // Structures de donnes\r\n\r\n    struct Voter {\r\n        bool isRegistered;\r\n        bool hasVoted;\r\n        uint votedProposalId;\r\n    }\r\n\r\n    struct Proposal {\r\n        string description;\r\n        uint voteCount;\r\n    }\r\n\r\n    // numration des tats du processus de vote\r\n\r\n    enum WorkflowStatus {\r\n        RegisteringVoters,\r\n        ProposalsRegistrationStarted,\r\n        ProposalsRegistrationEnded,\r\n        VotingSessionStarted,\r\n        VotingSessionEnded,\r\n        VotesTallied\r\n    }\r\n\r\n    uint winningProposalId;\r\n\r\n    // vnements\r\n\r\n    event VoterRegistered(address voterAddress);\r\n    event WorkflowStatusChange(WorkflowStatus previousStatus, WorkflowStatus newStatus);\r\n    event ProposalRegistered(uint proposalId);\r\n    event Voted (address voter, uint proposalId);\r\n\r\n    // Variables d'tat\r\n\r\n    mapping(address => Voter) voters;\r\n    Proposal[] proposals;\r\n    WorkflowStatus currentWorkflowStatus;\r\n\r\n    // Modificateurs\r\n\r\n    modifier onlyVoters() {\r\n        require(voters[msg.sender].isRegistered, \"You are not registered to vote.\");\r\n        _;\r\n    }\r\n\r\n    modifier onlyDuringVotingSession() {\r\n        require(currentWorkflowStatus == WorkflowStatus.VotingSessionStarted, \"The voting session is not active.\");\r\n        _;\r\n    }\r\n\r\n    modifier onlyAfterVotingSessionEnded() {\r\n        require(currentWorkflowStatus == WorkflowStatus.VotingSessionEnded, \"The voting session is still active.\");\r\n        _;\r\n    }\r\n\r\n    modifier onlyDuringProposalsRegistration() {\r\n        require(currentWorkflowStatus == WorkflowStatus.ProposalsRegistrationStarted, \"Proposals registration is not active.\");\r\n        _;\r\n    }\r\n\r\n    modifier onlyAfterProposalsRegistrationEnded() {\r\n        require(currentWorkflowStatus == WorkflowStatus.ProposalsRegistrationEnded, \"Proposals registration is still active.\");\r\n        _;\r\n    }\r\n\r\n    /// @notice Is address a voter\r\n    /// @param _address : Address of voter\r\n    /// @return bool : is voter\r\n    function isVoter(address _address) external view returns (bool){\r\n        if(voters[_address].isRegistered) {\r\n            return true;\r\n        }\r\n        return false;\r\n    }\r\n\r\n    /// @notice Get workflow status\r\n    /// @return WorkflowStatus : current status\r\n    function getWorkflowStatus() external view returns (WorkflowStatus) {\r\n        return currentWorkflowStatus;\r\n    }\r\n\r\n    /// @notice Get a proposal by id\r\n    /// @param _proposalId : Id of the proposal\r\n    /// @return Proposal : Proposal object\r\n    function getOneProposal(uint _proposalId) external view returns (Proposal memory){\r\n        return proposals[_proposalId];\r\n    }\r\n\r\n    /// @notice Get proposal array length to get array in front\r\n    /// @custom:accessibility External\r\n    function getProposalsLength() external view returns (uint){\r\n        return proposals.length;\r\n    }\r\n\r\n    // Fonctions d'administration\r\n\r\n    /// @notice Register voters\r\n    /// @param _voters : Address of voters\r\n    /// @custom:accessibility Admin\r\n    function registerVoters(address[] memory _voters) external onlyOwner {\r\n        // Vrifie que l'tat courant du workflow est en cours d'inscription des lecteurs.\r\n        require(currentWorkflowStatus == WorkflowStatus.RegisteringVoters, \"Cannot register voters at this time.\");\r\n        // Boucle sur la liste des adresses d'lecteurs fournie et vrifie que chaque lecteur n'est pas dj enregistr.\r\n        for (uint i = 0; i < _voters.length; i++) {\r\n            require(!voters[_voters[i]].isRegistered, \"Voter already registered.\");\r\n            // Enregistre l'lecteur comme tant enregistr.\r\n            voters[_voters[i]].isRegistered = true;\r\n            // met un vnement pour signaler que l'lecteur a t enregistr.\r\n            emit VoterRegistered(_voters[i]);\r\n        }\r\n    }\r\n\r\n    /// @notice Start proposal session\r\n    /// @custom:accessibility Admin\r\n    function startProposalsRegistration() external onlyOwner {\r\n        // Vrifie que l'tat courant du workflow est en cours d'inscription des lecteurs.\r\n        require(currentWorkflowStatus == WorkflowStatus.RegisteringVoters, \"Cannot start proposals registration at this time.\");\r\n        // Modifie l'tat courant du workflow pour indiquer que l'inscription des propositions a commenc.\r\n        currentWorkflowStatus = WorkflowStatus.ProposalsRegistrationStarted;\r\n        // met un vnement pour signaler que l'tat du workflow a chang.\r\n        emit WorkflowStatusChange(WorkflowStatus.RegisteringVoters, currentWorkflowStatus);\r\n    }\r\n\r\n    /// @notice End proposal session\r\n    /// @custom:accessibility Admin\r\n    function endProposalsRegistration() external onlyOwner {\r\n        // Vrifie que l'tat courant du workflow est en cours d'inscription des propositions.\r\n        require(currentWorkflowStatus == WorkflowStatus.ProposalsRegistrationStarted, \"Cannot end proposals registration at this time.\");\r\n        // Modifie l'tat courant du workflow pour indiquer que l'inscription des propositions est termine.\r\n        currentWorkflowStatus = WorkflowStatus.ProposalsRegistrationEnded;\r\n        // met un vnement pour signaler que l'tat du workflow a chang.\r\n        emit WorkflowStatusChange(WorkflowStatus.ProposalsRegistrationStarted, currentWorkflowStatus);\r\n    }\r\n\r\n    /// @notice Start voting session\r\n    /// @custom:accessibility Admin\r\n    function startVotingSession() external onlyOwner {\r\n        // Vrifie que l'tat courant du workflow est l'inscription des propositions termine.\r\n        require(currentWorkflowStatus == WorkflowStatus.ProposalsRegistrationEnded, \"Cannot start voting session at this time.\");\r\n        // Modifie l'tat courant du workflow pour indiquer que la session de vote a commenc.\r\n        currentWorkflowStatus = WorkflowStatus.VotingSessionStarted;\r\n        // met un vnement pour signaler que l'tat du workflow a chang.\r\n        emit WorkflowStatusChange(WorkflowStatus.ProposalsRegistrationEnded, currentWorkflowStatus);\r\n    }\r\n\r\n    /// @notice End voting session\r\n    /// @custom:accessibility Admin\r\n    function endVotingSession() external onlyOwner {\r\n        // Vrifie que l'tat courant du workflow est la session de vote en cours.\r\n        require(currentWorkflowStatus == WorkflowStatus.VotingSessionStarted, \"Cannot end voting session at this time.\");\r\n        // Modifie l'tat courant du workflow pour indiquer que la session de vote est termine.\r\n        currentWorkflowStatus = WorkflowStatus.VotingSessionEnded;\r\n        // met un vnement pour signaler que l'tat du workflow a chang.\r\n        emit WorkflowStatusChange(WorkflowStatus.VotingSessionStarted, currentWorkflowStatus);\r\n    }\r\n\r\n    /// @notice For users to register proposal\r\n    /// @param _description : Description of their proposal\r\n    /// @custom:accessibility Voters\r\n    function registerProposal(string memory _description) external onlyVoters onlyDuringProposalsRegistration {\r\n        // La fonction permet  un lecteur enregistr de proposer une nouvelle proposition pendant la priode d'enregistrement des propositions.\r\n        require(keccak256(abi.encodePacked(_description)) != keccak256(\"\"), \"Proposal can't be null\");\r\n        for (uint i = 0; i < proposals.length; i++) {\r\n            require(keccak256(abi.encodePacked(proposals[i].description)) != keccak256(abi.encodePacked(_description)), \"Proposal already registered.\");\r\n            proposals.push(Proposal({\r\n                description: _description,\r\n                voteCount: 0\r\n            }));\r\n            // Ajouter une nouvelle proposition  la liste des propositions existantes et mettre un vnement.\r\n            emit ProposalRegistered(proposals.length - 1);\r\n        }\r\n    }\r\n\r\n    /// @notice For users to vote\r\n    /// @param _proposalId : Id of proposal\r\n    /// @custom:accessibility Voters\r\n    function vote(uint _proposalId) external onlyVoters onlyDuringVotingSession {\r\n        // Rcupre le votant actuel depuis le mapping de votants\r\n        Voter storage voter = voters[msg.sender];\r\n        // Vrifie si le votant n'a pas dj vot\r\n        require(!voter.hasVoted, \"You have already voted.\");\r\n        // Enregistre le vote et le votant dans les mappings correspondants\r\n        voter.hasVoted = true;\r\n        voter.votedProposalId = _proposalId;\r\n        // Incrmente le compteur de votes pour la proposition correspondante\r\n        proposals[_proposalId].voteCount++;\r\n        // met un vnement pour signaler que le votant a vot pour la proposition correspondante\r\n        emit Voted(msg.sender, _proposalId);\r\n    }\r\n\r\n    /// @notice Tally votes after ending voting session\r\n    /// @custom:accessibility Admin\r\n    function tallyVotes() external onlyOwner onlyAfterVotingSessionEnded {\r\n        // Initialise le compteur de votes gagnants  zro et l'indice de la proposition gagnante  zro\r\n        uint winningVoteCount = 0;\r\n        uint winningProposalIndex = 0;\r\n        // Parcourt toutes les propositions enregistres\r\n        for (uint i = 0; i < proposals.length; i++) {\r\n            // Si le nombre de votes pour la proposition actuelle est suprieur au nombre de votes gagnants, alors la proposition actuelle devient la proposition gagnante\r\n            if (proposals[i].voteCount > winningVoteCount) {\r\n                winningVoteCount = proposals[i].voteCount;\r\n                winningProposalIndex = i;\r\n            }\r\n        }\r\n        // Enregistre l'ID de la proposition gagnante et met  jour le statut de workflow\r\n        winningProposalId = winningProposalIndex;\r\n        currentWorkflowStatus = WorkflowStatus.VotesTallied;\r\n    }\r\n\r\n    function test() external pure returns (uint) {\r\n        return 1;\r\n    }\r\n\r\n}\r\n",
  "sourcePath": "C:\\Users\\Nathan\\IdeaProjects\\blockchain-vote-svelte\\back\\contracts\\Voting.sol",
  "compiler": {
    "name": "solc",
    "version": "0.8.19+commit.7dd6d404.Emscripten.clang"
  },
  "schemaVersion": "3.4.13",
  "updatedAt": "2023-05-09T21:43:41.681Z",
  "networkType": "ethereum",
  "devdoc": {
    "author": "Wsh on est vraiment 8 ? / Modified by Nathan",
    "kind": "dev",
    "methods": {
      "endProposalsRegistration()": {
        "custom:accessibility": "Admin"
      },
      "endVotingSession()": {
        "custom:accessibility": "Admin"
      },
      "getOneProposal(uint256)": {
        "params": {
          "_proposalId": ": Id of the proposal"
        },
        "returns": {
          "_0": "Proposal : Proposal object"
        }
      },
      "getProposalsLength()": {
        "custom:accessibility": "External"
      },
      "getWorkflowStatus()": {
        "returns": {
          "_0": "WorkflowStatus : current status"
        }
      },
      "isVoter(address)": {
        "params": {
          "_address": ": Address of voter"
        },
        "returns": {
          "_0": "bool : is voter"
        }
      },
      "owner()": {
        "details": "Returns the address of the current owner."
      },
      "registerProposal(string)": {
        "custom:accessibility": "Voters",
        "params": {
          "_description": ": Description of their proposal"
        }
      },
      "registerVoters(address[])": {
        "custom:accessibility": "Admin",
        "params": {
          "_voters": ": Address of voters"
        }
      },
      "renounceOwnership()": {
        "details": "Leaves the contract without owner. It will not be possible to call `onlyOwner` functions anymore. Can only be called by the current owner. NOTE: Renouncing ownership will leave the contract without an owner, thereby removing any functionality that is only available to the owner."
      },
      "startProposalsRegistration()": {
        "custom:accessibility": "Admin"
      },
      "startVotingSession()": {
        "custom:accessibility": "Admin"
      },
      "tallyVotes()": {
        "custom:accessibility": "Admin"
      },
      "transferOwnership(address)": {
        "details": "Transfers ownership of the contract to a new account (`newOwner`). Can only be called by the current owner."
      },
      "vote(uint256)": {
        "custom:accessibility": "Voters",
        "params": {
          "_proposalId": ": Id of proposal"
        }
      }
    },
    "title": "A voting system",
    "version": 1
  },
  "userdoc": {
    "kind": "user",
    "methods": {
      "endProposalsRegistration()": {
        "notice": "End proposal session"
      },
      "endVotingSession()": {
        "notice": "End voting session"
      },
      "getOneProposal(uint256)": {
        "notice": "Get a proposal by id"
      },
      "getProposalsLength()": {
        "notice": "Get proposal array length to get array in front"
      },
      "getWorkflowStatus()": {
        "notice": "Get workflow status"
      },
      "isVoter(address)": {
        "notice": "Is address a voter"
      },
      "registerProposal(string)": {
        "notice": "For users to register proposal"
      },
      "registerVoters(address[])": {
        "notice": "Register voters"
      },
      "startProposalsRegistration()": {
        "notice": "Start proposal session"
      },
      "startVotingSession()": {
        "notice": "Start voting session"
      },
      "tallyVotes()": {
        "notice": "Tally votes after ending voting session"
      },
      "vote(uint256)": {
        "notice": "For users to vote"
      }
    },
    "notice": "This system permit users to make proposals and vote them",
    "version": 1
  }
}