{
  "contractName": "Voting",
  "abi": [
    {
      "anonymous": false,
      "inputs": [
        {
          "indexed": true,
          "internalType": "address",
          "name": "previousOwner",
          "type": "address"
        },
        {
          "indexed": true,
          "internalType": "address",
          "name": "newOwner",
          "type": "address"
        }
      ],
      "name": "OwnershipTransferred",
      "type": "event"
    },
    {
      "anonymous": false,
      "inputs": [
        {
          "indexed": false,
          "internalType": "uint256",
          "name": "proposalId",
          "type": "uint256"
        }
      ],
      "name": "ProposalRegistered",
      "type": "event"
    },
    {
      "anonymous": false,
      "inputs": [
        {
          "indexed": false,
          "internalType": "address",
          "name": "voter",
          "type": "address"
        },
        {
          "indexed": false,
          "internalType": "uint256",
          "name": "proposalId",
          "type": "uint256"
        }
      ],
      "name": "Voted",
      "type": "event"
    },
    {
      "anonymous": false,
      "inputs": [
        {
          "indexed": false,
          "internalType": "address",
          "name": "voterAddress",
          "type": "address"
        }
      ],
      "name": "VoterRegistered",
      "type": "event"
    },
    {
      "anonymous": false,
      "inputs": [
        {
          "indexed": false,
          "internalType": "enum Voting.WorkflowStatus",
          "name": "previousStatus",
          "type": "uint8"
        },
        {
          "indexed": false,
          "internalType": "enum Voting.WorkflowStatus",
          "name": "newStatus",
          "type": "uint8"
        }
      ],
      "name": "WorkflowStatusChange",
      "type": "event"
    },
    {
      "inputs": [],
      "name": "owner",
      "outputs": [
        {
          "internalType": "address",
          "name": "",
          "type": "address"
        }
      ],
      "stateMutability": "view",
      "type": "function",
      "constant": true
    },
    {
      "inputs": [],
      "name": "renounceOwnership",
      "outputs": [],
      "stateMutability": "nonpayable",
      "type": "function"
    },
    {
      "inputs": [
        {
          "internalType": "address",
          "name": "newOwner",
          "type": "address"
        }
      ],
      "name": "transferOwnership",
      "outputs": [],
      "stateMutability": "nonpayable",
      "type": "function"
    },
    {
      "inputs": [],
      "name": "getWorkflowStatus",
      "outputs": [
        {
          "internalType": "enum Voting.WorkflowStatus",
          "name": "",
          "type": "uint8"
        }
      ],
      "stateMutability": "view",
      "type": "function",
      "constant": true
    },
    {
      "inputs": [
        {
          "internalType": "uint256",
          "name": "_proposalId",
          "type": "uint256"
        }
      ],
      "name": "getOneProposal",
      "outputs": [
        {
          "components": [
            {
              "internalType": "string",
              "name": "description",
              "type": "string"
            },
            {
              "internalType": "uint256",
              "name": "voteCount",
              "type": "uint256"
            }
          ],
          "internalType": "struct Voting.Proposal",
          "name": "",
          "type": "tuple"
        }
      ],
      "stateMutability": "view",
      "type": "function",
      "constant": true
    },
    {
      "inputs": [],
      "name": "getProposalsLength",
      "outputs": [
        {
          "internalType": "uint256",
          "name": "",
          "type": "uint256"
        }
      ],
      "stateMutability": "view",
      "type": "function",
      "constant": true
    },
    {
      "inputs": [
        {
          "internalType": "address[]",
          "name": "_voters",
          "type": "address[]"
        }
      ],
      "name": "registerVoters",
      "outputs": [],
      "stateMutability": "nonpayable",
      "type": "function"
    },
    {
      "inputs": [],
      "name": "startProposalsRegistration",
      "outputs": [],
      "stateMutability": "nonpayable",
      "type": "function"
    },
    {
      "inputs": [],
      "name": "endProposalsRegistration",
      "outputs": [],
      "stateMutability": "nonpayable",
      "type": "function"
    },
    {
      "inputs": [],
      "name": "startVotingSession",
      "outputs": [],
      "stateMutability": "nonpayable",
      "type": "function"
    },
    {
      "inputs": [],
      "name": "endVotingSession",
      "outputs": [],
      "stateMutability": "nonpayable",
      "type": "function"
    },
    {
      "inputs": [
        {
          "internalType": "string",
          "name": "_description",
          "type": "string"
        }
      ],
      "name": "registerProposal",
      "outputs": [],
      "stateMutability": "nonpayable",
      "type": "function"
    },
    {
      "inputs": [
        {
          "internalType": "uint256",
          "name": "_proposalId",
          "type": "uint256"
        }
      ],
      "name": "vote",
      "outputs": [],
      "stateMutability": "nonpayable",
      "type": "function"
    },
    {
      "inputs": [],
      "name": "tallyVotes",
      "outputs": [],
      "stateMutability": "nonpayable",
      "type": "function"
    },
    {
      "inputs": [],
      "name": "test",
      "outputs": [
        {
          "internalType": "uint256",
          "name": "",
          "type": "uint256"
        }
      ],
      "stateMutability": "pure",
      "type": "function",
      "constant": true
    }
  ],
  "bytecode": "0x608060405234801561001057600080fd5b5061002d61002261003260201b60201c565b61003a60201b60201c565b6100fe565b600033905090565b60008060009054906101000a900473ffffffffffffffffffffffffffffffffffffffff169050816000806101000a81548173ffffffffffffffffffffffffffffffffffffffff021916908373ffffffffffffffffffffffffffffffffffffffff1602179055508173ffffffffffffffffffffffffffffffffffffffff168173ffffffffffffffffffffffffffffffffffffffff167f8be0079c531659141344cd1fd0a4f28419497f9722a3daafe3b4186f6b6457e060405160405180910390a35050565b612431806200010e6000396000f3fe608060405234801561001057600080fd5b50600436106100f55760003560e01c8063a7bfab1611610097578063ee74c67811610066578063ee74c678146101ec578063f2fde38b146101f6578063f75d64a614610212578063f8a8fd6d14610230576100f5565b8063a7bfab161461019e578063bc378a73146101a8578063d55ec9c1146101c6578063e09b8c79146101e2576100f5565b80636c297445116100d35780636c2974451461013c578063715018a6146101465780638da5cb5b14610150578063a2788cce1461016e576100f5565b80630121b93f146100fa5780632f95355b14610116578063378a217814610132575b600080fd5b610114600480360381019061010f919061121e565b61024e565b005b610130600480360381019061012b9190611391565b610486565b005b61013a610797565b005b6101446108cb565b005b61014e6109bf565b005b6101586109d3565b604051610165919061141b565b60405180910390f35b6101886004803603810190610183919061121e565b6109fc565b6040516101959190611501565b60405180910390f35b6101a6610ad4565b005b6101b0610bc7565b6040516101bd9190611532565b60405180910390f35b6101e060048036038101906101db9190611641565b610bd4565b005b6101ea610de5565b005b6101f4610ed9565b005b610210600480360381019061020b919061168a565b610fcd565b005b61021a611050565b604051610227919061172e565b60405180910390f35b610238611067565b6040516102459190611532565b60405180910390f35b600260003373ffffffffffffffffffffffffffffffffffffffff1673ffffffffffffffffffffffffffffffffffffffff16815260200190815260200160002060000160009054906101000a900460ff166102dd576040517f08c379a00000000000000000000000000000000000000000000000000000000081526004016102d4906117a6565b60405180910390fd5b600360058111156102f1576102f06116b7565b5b600460009054906101000a900460ff166005811115610313576103126116b7565b5b14610353576040517f08c379a000000000000000000000000000000000000000000000000000000000815260040161034a90611838565b60405180910390fd5b6000600260003373ffffffffffffffffffffffffffffffffffffffff1673ffffffffffffffffffffffffffffffffffffffff16815260200190815260200160002090508060000160019054906101000a900460ff16156103e8576040517f08c379a00000000000000000000000000000000000000000000000000000000081526004016103df906118a4565b60405180910390fd5b60018160000160016101000a81548160ff02191690831515021790555081816001018190555060038281548110610422576104216118c4565b5b9060005260206000209060020201600101600081548092919061044490611922565b91905055507f4d99b957a2bc29a30ebd96a7be8e68fe50a3c701db28a91436490b7d53870ca4338360405161047a92919061196a565b60405180910390a15050565b600260003373ffffffffffffffffffffffffffffffffffffffff1673ffffffffffffffffffffffffffffffffffffffff16815260200190815260200160002060000160009054906101000a900460ff16610515576040517f08c379a000000000000000000000000000000000000000000000000000000000815260040161050c906117a6565b60405180910390fd5b60016005811115610529576105286116b7565b5b600460009054906101000a900460ff16600581111561054b5761054a6116b7565b5b1461058b576040517f08c379a000000000000000000000000000000000000000000000000000000000815260040161058290611a05565b60405180910390fd5b7fc5d2460186f7233c927e7db2dcc703c0e500b653ca82273b7bfad8045d85a470816040516020016105bd9190611a61565b6040516020818303038152906040528051906020012003610613576040517f08c379a000000000000000000000000000000000000000000000000000000000815260040161060a90611ac4565b60405180910390fd5b60005b60038054905081101561079357816040516020016106349190611a61565b604051602081830303815290604052805190602001206003828154811061065e5761065d6118c4565b5b906000526020600020906002020160000160405160200161067f9190611bdc565b60405160208183030381529060405280519060200120036106d5576040517f08c379a00000000000000000000000000000000000000000000000000000000081526004016106cc90611c3f565b60405180910390fd5b6003604051806040016040528084815260200160008152509080600181540180825580915050600190039060005260206000209060020201600090919091909150600082015181600001908161072b9190611df6565b506020820151816001015550507f92e393e9b54e2f801d3ea4beb0c5e71a21cc34a5d34b77d0fb8a3aa1650dc18f600160038054905061076b9190611ec8565b6040516107789190611532565b60405180910390a1808061078b90611922565b915050610616565b5050565b61079f611070565b600460058111156107b3576107b26116b7565b5b600460009054906101000a900460ff1660058111156107d5576107d46116b7565b5b14610815576040517f08c379a000000000000000000000000000000000000000000000000000000000815260040161080c90611f6e565b60405180910390fd5b60008060005b60038054905081101561089457826003828154811061083d5761083c6118c4565b5b90600052602060002090600202016001015411156108815760038181548110610869576108686118c4565b5b90600052602060002090600202016001015492508091505b808061088c90611922565b91505061081b565b50806001819055506005600460006101000a81548160ff021916908360058111156108c2576108c16116b7565b5b02179055505050565b6108d3611070565b600160058111156108e7576108e66116b7565b5b600460009054906101000a900460ff166005811115610909576109086116b7565b5b14610949576040517f08c379a000000000000000000000000000000000000000000000000000000000815260040161094090612000565b60405180910390fd5b6002600460006101000a81548160ff0219169083600581111561096f5761096e6116b7565b5b02179055507f0a97a4ee45751e2abf3e4fc8946939630b11b371ea8ae39ccdc3056e98f5cc3f6001600460009054906101000a900460ff166040516109b5929190612020565b60405180910390a1565b6109c7611070565b6109d160006110ee565b565b60008060009054906101000a900473ffffffffffffffffffffffffffffffffffffffff16905090565b610a046111ba565b60038281548110610a1857610a176118c4565b5b9060005260206000209060020201604051806040016040529081600082018054610a4190611b13565b80601f0160208091040260200160405190810160405280929190818152602001828054610a6d90611b13565b8015610aba5780601f10610a8f57610100808354040283529160200191610aba565b820191906000526020600020905b815481529060010190602001808311610a9d57829003601f168201915b505050505081526020016001820154815250509050919050565b610adc611070565b60036005811115610af057610aef6116b7565b5b600460009054906101000a900460ff166005811115610b1257610b116116b7565b5b14610b52576040517f08c379a0000000000000000000000000000000000000000000000000000000008152600401610b49906120bb565b60405180910390fd5b60048060006101000a81548160ff02191690836005811115610b7757610b766116b7565b5b02179055507f0a97a4ee45751e2abf3e4fc8946939630b11b371ea8ae39ccdc3056e98f5cc3f6003600460009054906101000a900460ff16604051610bbd929190612020565b60405180910390a1565b6000600380549050905090565b610bdc611070565b60006005811115610bf057610bef6116b7565b5b600460009054906101000a900460ff166005811115610c1257610c116116b7565b5b14610c52576040517f08c379a0000000000000000000000000000000000000000000000000000000008152600401610c499061214d565b60405180910390fd5b60005b8151811015610de15760026000838381518110610c7557610c746118c4565b5b602002602001015173ffffffffffffffffffffffffffffffffffffffff1673ffffffffffffffffffffffffffffffffffffffff16815260200190815260200160002060000160009054906101000a900460ff1615610d08576040517f08c379a0000000000000000000000000000000000000000000000000000000008152600401610cff906121b9565b60405180910390fd5b600160026000848481518110610d2157610d206118c4565b5b602002602001015173ffffffffffffffffffffffffffffffffffffffff1673ffffffffffffffffffffffffffffffffffffffff16815260200190815260200160002060000160006101000a81548160ff0219169083151502179055507fb6be2187d059cc2a55fe29e0e503b566e1e0f8c8780096e185429350acffd3dd828281518110610db157610db06118c4565b5b6020026020010151604051610dc6919061141b565b60405180910390a18080610dd990611922565b915050610c55565b5050565b610ded611070565b60006005811115610e0157610e006116b7565b5b600460009054906101000a900460ff166005811115610e2357610e226116b7565b5b14610e63576040517f08c379a0000000000000000000000000000000000000000000000000000000008152600401610e5a9061224b565b60405180910390fd5b6001600460006101000a81548160ff02191690836005811115610e8957610e886116b7565b5b02179055507f0a97a4ee45751e2abf3e4fc8946939630b11b371ea8ae39ccdc3056e98f5cc3f6000600460009054906101000a900460ff16604051610ecf929190612020565b60405180910390a1565b610ee1611070565b60026005811115610ef557610ef46116b7565b5b600460009054906101000a900460ff166005811115610f1757610f166116b7565b5b14610f57576040517f08c379a0000000000000000000000000000000000000000000000000000000008152600401610f4e906122dd565b60405180910390fd5b6003600460006101000a81548160ff02191690836005811115610f7d57610f7c6116b7565b5b02179055507f0a97a4ee45751e2abf3e4fc8946939630b11b371ea8ae39ccdc3056e98f5cc3f6002600460009054906101000a900460ff16604051610fc3929190612020565b60405180910390a1565b610fd5611070565b600073ffffffffffffffffffffffffffffffffffffffff168173ffffffffffffffffffffffffffffffffffffffff1603611044576040517f08c379a000000000000000000000000000000000000000000000000000000000815260040161103b9061236f565b60405180910390fd5b61104d816110ee565b50565b6000600460009054906101000a900460ff16905090565b60006001905090565b6110786111b2565b73ffffffffffffffffffffffffffffffffffffffff166110966109d3565b73ffffffffffffffffffffffffffffffffffffffff16146110ec576040517f08c379a00000000000000000000000000000000000000000000000000000000081526004016110e3906123db565b60405180910390fd5b565b60008060009054906101000a900473ffffffffffffffffffffffffffffffffffffffff169050816000806101000a81548173ffffffffffffffffffffffffffffffffffffffff021916908373ffffffffffffffffffffffffffffffffffffffff1602179055508173ffffffffffffffffffffffffffffffffffffffff168173ffffffffffffffffffffffffffffffffffffffff167f8be0079c531659141344cd1fd0a4f28419497f9722a3daafe3b4186f6b6457e060405160405180910390a35050565b600033905090565b604051806040016040528060608152602001600081525090565b6000604051905090565b600080fd5b600080fd5b6000819050919050565b6111fb816111e8565b811461120657600080fd5b50565b600081359050611218816111f2565b92915050565b600060208284031215611234576112336111de565b5b600061124284828501611209565b91505092915050565b600080fd5b600080fd5b6000601f19601f8301169050919050565b7f4e487b7100000000000000000000000000000000000000000000000000000000600052604160045260246000fd5b61129e82611255565b810181811067ffffffffffffffff821117156112bd576112bc611266565b5b80604052505050565b60006112d06111d4565b90506112dc8282611295565b919050565b600067ffffffffffffffff8211156112fc576112fb611266565b5b61130582611255565b9050602081019050919050565b82818337600083830152505050565b600061133461132f846112e1565b6112c6565b9050828152602081018484840111156113505761134f611250565b5b61135b848285611312565b509392505050565b600082601f8301126113785761137761124b565b5b8135611388848260208601611321565b91505092915050565b6000602082840312156113a7576113a66111de565b5b600082013567ffffffffffffffff8111156113c5576113c46111e3565b5b6113d184828501611363565b91505092915050565b600073ffffffffffffffffffffffffffffffffffffffff82169050919050565b6000611405826113da565b9050919050565b611415816113fa565b82525050565b6000602082019050611430600083018461140c565b92915050565b600081519050919050565b600082825260208201905092915050565b60005b83811015611470578082015181840152602081019050611455565b60008484015250505050565b600061148782611436565b6114918185611441565b93506114a1818560208601611452565b6114aa81611255565b840191505092915050565b6114be816111e8565b82525050565b600060408301600083015184820360008601526114e1828261147c565b91505060208301516114f660208601826114b5565b508091505092915050565b6000602082019050818103600083015261151b81846114c4565b905092915050565b61152c816111e8565b82525050565b60006020820190506115476000830184611523565b92915050565b600067ffffffffffffffff82111561156857611567611266565b5b602082029050602081019050919050565b600080fd5b611587816113fa565b811461159257600080fd5b50565b6000813590506115a48161157e565b92915050565b60006115bd6115b88461154d565b6112c6565b905080838252602082019050602084028301858111156115e0576115df611579565b5b835b8181101561160957806115f58882611595565b8452602084019350506020810190506115e2565b5050509392505050565b600082601f8301126116285761162761124b565b5b81356116388482602086016115aa565b91505092915050565b600060208284031215611657576116566111de565b5b600082013567ffffffffffffffff811115611675576116746111e3565b5b61168184828501611613565b91505092915050565b6000602082840312156116a05761169f6111de565b5b60006116ae84828501611595565b91505092915050565b7f4e487b7100000000000000000000000000000000000000000000000000000000600052602160045260246000fd5b600681106116f7576116f66116b7565b5b50565b6000819050611708826116e6565b919050565b6000611718826116fa565b9050919050565b6117288161170d565b82525050565b6000602082019050611743600083018461171f565b92915050565b600082825260208201905092915050565b7f596f7520617265206e6f74207265676973746572656420746f20766f74652e00600082015250565b6000611790601f83611749565b915061179b8261175a565b602082019050919050565b600060208201905081810360008301526117bf81611783565b9050919050565b7f54686520766f74696e672073657373696f6e206973206e6f742061637469766560008201527f2e00000000000000000000000000000000000000000000000000000000000000602082015250565b6000611822602183611749565b915061182d826117c6565b604082019050919050565b6000602082019050818103600083015261185181611815565b9050919050565b7f596f75206861766520616c726561647920766f7465642e000000000000000000600082015250565b600061188e601783611749565b915061189982611858565b602082019050919050565b600060208201905081810360008301526118bd81611881565b9050919050565b7f4e487b7100000000000000000000000000000000000000000000000000000000600052603260045260246000fd5b7f4e487b7100000000000000000000000000000000000000000000000000000000600052601160045260246000fd5b600061192d826111e8565b91507fffffffffffffffffffffffffffffffffffffffffffffffffffffffffffffffff820361195f5761195e6118f3565b5b600182019050919050565b600060408201905061197f600083018561140c565b61198c6020830184611523565b9392505050565b7f50726f706f73616c7320726567697374726174696f6e206973206e6f7420616360008201527f746976652e000000000000000000000000000000000000000000000000000000602082015250565b60006119ef602583611749565b91506119fa82611993565b604082019050919050565b60006020820190508181036000830152611a1e816119e2565b9050919050565b600081905092915050565b6000611a3b82611436565b611a458185611a25565b9350611a55818560208601611452565b80840191505092915050565b6000611a6d8284611a30565b915081905092915050565b7f50726f706f73616c2063616e2774206265206e756c6c00000000000000000000600082015250565b6000611aae601683611749565b9150611ab982611a78565b602082019050919050565b60006020820190508181036000830152611add81611aa1565b9050919050565b7f4e487b7100000000000000000000000000000000000000000000000000000000600052602260045260246000fd5b60006002820490506001821680611b2b57607f821691505b602082108103611b3e57611b3d611ae4565b5b50919050565b60008190508160005260206000209050919050565b60008154611b6681611b13565b611b708186611a25565b94506001821660008114611b8b5760018114611ba057611bd3565b60ff1983168652811515820286019350611bd3565b611ba985611b44565b60005b83811015611bcb57815481890152600182019150602081019050611bac565b838801955050505b50505092915050565b6000611be88284611b59565b915081905092915050565b7f50726f706f73616c20616c726561647920726567697374657265642e00000000600082015250565b6000611c29601c83611749565b9150611c3482611bf3565b602082019050919050565b60006020820190508181036000830152611c5881611c1c565b9050919050565b60006020601f8301049050919050565b600082821b905092915050565b600060088302611cac7fffffffffffffffffffffffffffffffffffffffffffffffffffffffffffffffff82611c6f565b611cb68683611c6f565b95508019841693508086168417925050509392505050565b6000819050919050565b6000611cf3611cee611ce9846111e8565b611cce565b6111e8565b9050919050565b6000819050919050565b611d0d83611cd8565b611d21611d1982611cfa565b848454611c7c565b825550505050565b600090565b611d36611d29565b611d41818484611d04565b505050565b5b81811015611d6557611d5a600082611d2e565b600181019050611d47565b5050565b601f821115611daa57611d7b81611b44565b611d8484611c5f565b81016020851015611d93578190505b611da7611d9f85611c5f565b830182611d46565b50505b505050565b600082821c905092915050565b6000611dcd60001984600802611daf565b1980831691505092915050565b6000611de68383611dbc565b9150826002028217905092915050565b611dff82611436565b67ffffffffffffffff811115611e1857611e17611266565b5b611e228254611b13565b611e2d828285611d69565b600060209050601f831160018114611e605760008415611e4e578287015190505b611e588582611dda565b865550611ec0565b601f198416611e6e86611b44565b60005b82811015611e9657848901518255600182019150602085019450602081019050611e71565b86831015611eb35784890151611eaf601f891682611dbc565b8355505b6001600288020188555050505b505050505050565b6000611ed3826111e8565b9150611ede836111e8565b9250828203905081811115611ef657611ef56118f3565b5b92915050565b7f54686520766f74696e672073657373696f6e206973207374696c6c206163746960008201527f76652e0000000000000000000000000000000000000000000000000000000000602082015250565b6000611f58602383611749565b9150611f6382611efc565b604082019050919050565b60006020820190508181036000830152611f8781611f4b565b9050919050565b7f43616e6e6f7420656e642070726f706f73616c7320726567697374726174696f60008201527f6e20617420746869732074696d652e0000000000000000000000000000000000602082015250565b6000611fea602f83611749565b9150611ff582611f8e565b604082019050919050565b6000602082019050818103600083015261201981611fdd565b9050919050565b6000604082019050612035600083018561171f565b612042602083018461171f565b9392505050565b7f43616e6e6f7420656e6420766f74696e672073657373696f6e2061742074686960008201527f732074696d652e00000000000000000000000000000000000000000000000000602082015250565b60006120a5602783611749565b91506120b082612049565b604082019050919050565b600060208201905081810360008301526120d481612098565b9050919050565b7f43616e6e6f7420726567697374657220766f746572732061742074686973207460008201527f696d652e00000000000000000000000000000000000000000000000000000000602082015250565b6000612137602483611749565b9150612142826120db565b604082019050919050565b600060208201905081810360008301526121668161212a565b9050919050565b7f566f74657220616c726561647920726567697374657265642e00000000000000600082015250565b60006121a3601983611749565b91506121ae8261216d565b602082019050919050565b600060208201905081810360008301526121d281612196565b9050919050565b7f43616e6e6f742073746172742070726f706f73616c732072656769737472617460008201527f696f6e20617420746869732074696d652e000000000000000000000000000000602082015250565b6000612235603183611749565b9150612240826121d9565b604082019050919050565b6000602082019050818103600083015261226481612228565b9050919050565b7f43616e6e6f7420737461727420766f74696e672073657373696f6e206174207460008201527f6869732074696d652e0000000000000000000000000000000000000000000000602082015250565b60006122c7602983611749565b91506122d28261226b565b604082019050919050565b600060208201905081810360008301526122f6816122ba565b9050919050565b7f4f776e61626c653a206e6577206f776e657220697320746865207a65726f206160008201527f6464726573730000000000000000000000000000000000000000000000000000602082015250565b6000612359602683611749565b9150612364826122fd565b604082019050919050565b600060208201905081810360008301526123888161234c565b9050919050565b7f4f776e61626c653a2063616c6c6572206973206e6f7420746865206f776e6572600082015250565b60006123c5602083611749565b91506123d08261238f565b602082019050919050565b600060208201905081810360008301526123f4816123b8565b905091905056fea2646970667358221220fd1fb0037d1f6c981cbcc76e20abc0faec40bd178e88c0a420bd183c699c80f564736f6c63430008130033",
  "immutableReferences": {},
  "source": "// SPDX-License-Identifier: GPL-3.0\r\npragma solidity ^0.8.4;\r\n\r\nimport \"@openzeppelin/contracts/access/Ownable.sol\";\r\n\r\n/// @title A voting system\r\n/// @author Wsh on est vraiment 8 ? / Modified by Nathan\r\n/// @notice This system permit users to make proposals and vote them\r\ncontract Voting is Ownable {\r\n\r\n    // Structures de donnes\r\n\r\n    struct Voter {\r\n        bool isRegistered;\r\n        bool hasVoted;\r\n        uint votedProposalId;\r\n    }\r\n\r\n    struct Proposal {\r\n        string description;\r\n        uint voteCount;\r\n    }\r\n\r\n    // numration des tats du processus de vote\r\n\r\n    enum WorkflowStatus {\r\n        RegisteringVoters,\r\n        ProposalsRegistrationStarted,\r\n        ProposalsRegistrationEnded,\r\n        VotingSessionStarted,\r\n        VotingSessionEnded,\r\n        VotesTallied\r\n    }\r\n\r\n    uint winningProposalId;\r\n\r\n    // vnements\r\n\r\n    event VoterRegistered(address voterAddress);\r\n    event WorkflowStatusChange(WorkflowStatus previousStatus, WorkflowStatus newStatus);\r\n    event ProposalRegistered(uint proposalId);\r\n    event Voted (address voter, uint proposalId);\r\n\r\n    // Variables d'tat\r\n\r\n    mapping(address => Voter) voters;\r\n    Proposal[] proposals;\r\n    WorkflowStatus currentWorkflowStatus;\r\n\r\n    // Modificateurs\r\n\r\n    modifier onlyVoters() {\r\n        require(voters[msg.sender].isRegistered, \"You are not registered to vote.\");\r\n        _;\r\n    }\r\n\r\n    modifier onlyDuringVotingSession() {\r\n        require(currentWorkflowStatus == WorkflowStatus.VotingSessionStarted, \"The voting session is not active.\");\r\n        _;\r\n    }\r\n\r\n    modifier onlyAfterVotingSessionEnded() {\r\n        require(currentWorkflowStatus == WorkflowStatus.VotingSessionEnded, \"The voting session is still active.\");\r\n        _;\r\n    }\r\n\r\n    modifier onlyDuringProposalsRegistration() {\r\n        require(currentWorkflowStatus == WorkflowStatus.ProposalsRegistrationStarted, \"Proposals registration is not active.\");\r\n        _;\r\n    }\r\n\r\n    modifier onlyAfterProposalsRegistrationEnded() {\r\n        require(currentWorkflowStatus == WorkflowStatus.ProposalsRegistrationEnded, \"Proposals registration is still active.\");\r\n        _;\r\n    }\r\n\r\n    function getWorkflowStatus() external view returns (WorkflowStatus) {\r\n        return currentWorkflowStatus;\r\n    }\r\n\r\n    function getOneProposal(uint _proposalId) external view returns (Proposal memory){\r\n        return proposals[_proposalId];\r\n    }\r\n\r\n    /// @notice Get proposal array length to get array in front\r\n    /// @custom:accessibility External\r\n    function getProposalsLength() external view returns (uint){\r\n        return proposals.length;\r\n    }\r\n\r\n    // Fonctions d'administration\r\n\r\n    /// @notice Register voters\r\n    /// @param _voters : Address of voters\r\n    /// @custom:accessibility Admin\r\n    function registerVoters(address[] memory _voters) external onlyOwner {\r\n        // Vrifie que l'tat courant du workflow est en cours d'inscription des lecteurs.\r\n        require(currentWorkflowStatus == WorkflowStatus.RegisteringVoters, \"Cannot register voters at this time.\");\r\n        // Boucle sur la liste des adresses d'lecteurs fournie et vrifie que chaque lecteur n'est pas dj enregistr.\r\n        for (uint i = 0; i < _voters.length; i++) {\r\n            require(!voters[_voters[i]].isRegistered, \"Voter already registered.\");\r\n            // Enregistre l'lecteur comme tant enregistr.\r\n            voters[_voters[i]].isRegistered = true;\r\n            // met un vnement pour signaler que l'lecteur a t enregistr.\r\n            emit VoterRegistered(_voters[i]);\r\n        }\r\n    }\r\n\r\n    /// @notice Start proposal session\r\n    /// @custom:accessibility Admin\r\n    function startProposalsRegistration() external onlyOwner {\r\n        // Vrifie que l'tat courant du workflow est en cours d'inscription des lecteurs.\r\n        require(currentWorkflowStatus == WorkflowStatus.RegisteringVoters, \"Cannot start proposals registration at this time.\");\r\n        // Modifie l'tat courant du workflow pour indiquer que l'inscription des propositions a commenc.\r\n        currentWorkflowStatus = WorkflowStatus.ProposalsRegistrationStarted;\r\n        // met un vnement pour signaler que l'tat du workflow a chang.\r\n        emit WorkflowStatusChange(WorkflowStatus.RegisteringVoters, currentWorkflowStatus);\r\n    }\r\n\r\n    /// @notice End proposal session\r\n    /// @custom:accessibility Admin\r\n    function endProposalsRegistration() external onlyOwner {\r\n        // Vrifie que l'tat courant du workflow est en cours d'inscription des propositions.\r\n        require(currentWorkflowStatus == WorkflowStatus.ProposalsRegistrationStarted, \"Cannot end proposals registration at this time.\");\r\n        // Modifie l'tat courant du workflow pour indiquer que l'inscription des propositions est termine.\r\n        currentWorkflowStatus = WorkflowStatus.ProposalsRegistrationEnded;\r\n        // met un vnement pour signaler que l'tat du workflow a chang.\r\n        emit WorkflowStatusChange(WorkflowStatus.ProposalsRegistrationStarted, currentWorkflowStatus);\r\n    }\r\n\r\n    /// @notice Start voting session\r\n    /// @custom:accessibility Admin\r\n    function startVotingSession() external onlyOwner {\r\n        // Vrifie que l'tat courant du workflow est l'inscription des propositions termine.\r\n        require(currentWorkflowStatus == WorkflowStatus.ProposalsRegistrationEnded, \"Cannot start voting session at this time.\");\r\n        // Modifie l'tat courant du workflow pour indiquer que la session de vote a commenc.\r\n        currentWorkflowStatus = WorkflowStatus.VotingSessionStarted;\r\n        // met un vnement pour signaler que l'tat du workflow a chang.\r\n        emit WorkflowStatusChange(WorkflowStatus.ProposalsRegistrationEnded, currentWorkflowStatus);\r\n    }\r\n\r\n    /// @notice End voting session\r\n    /// @custom:accessibility Admin\r\n    function endVotingSession() external onlyOwner {\r\n        // Vrifie que l'tat courant du workflow est la session de vote en cours.\r\n        require(currentWorkflowStatus == WorkflowStatus.VotingSessionStarted, \"Cannot end voting session at this time.\");\r\n        // Modifie l'tat courant du workflow pour indiquer que la session de vote est termine.\r\n        currentWorkflowStatus = WorkflowStatus.VotingSessionEnded;\r\n        // met un vnement pour signaler que l'tat du workflow a chang.\r\n        emit WorkflowStatusChange(WorkflowStatus.VotingSessionStarted, currentWorkflowStatus);\r\n    }\r\n\r\n    /// @notice For users to register proposal\r\n    /// @param _description : Description of their proposal\r\n    /// @custom:accessibility Voters\r\n    function registerProposal(string memory _description) external onlyVoters onlyDuringProposalsRegistration {\r\n        // La fonction permet  un lecteur enregistr de proposer une nouvelle proposition pendant la priode d'enregistrement des propositions.\r\n        require(keccak256(abi.encodePacked(_description)) != keccak256(\"\"), \"Proposal can't be null\");\r\n        for (uint i = 0; i < proposals.length; i++) {\r\n            require(keccak256(abi.encodePacked(proposals[i].description)) != keccak256(abi.encodePacked(_description)), \"Proposal already registered.\");\r\n            proposals.push(Proposal({\r\n                description: _description,\r\n                voteCount: 0\r\n            }));\r\n            // Ajouter une nouvelle proposition  la liste des propositions existantes et mettre un vnement.\r\n            emit ProposalRegistered(proposals.length - 1);\r\n        }\r\n    }\r\n\r\n    /// @notice For users to vote\r\n    /// @param _proposalId : Id of proposal\r\n    /// @custom:accessibility Voters\r\n    function vote(uint _proposalId) external onlyVoters onlyDuringVotingSession {\r\n        // Rcupre le votant actuel depuis le mapping de votants\r\n        Voter storage voter = voters[msg.sender];\r\n        // Vrifie si le votant n'a pas dj vot\r\n        require(!voter.hasVoted, \"You have already voted.\");\r\n        // Enregistre le vote et le votant dans les mappings correspondants\r\n        voter.hasVoted = true;\r\n        voter.votedProposalId = _proposalId;\r\n        // Incrmente le compteur de votes pour la proposition correspondante\r\n        proposals[_proposalId].voteCount++;\r\n        // met un vnement pour signaler que le votant a vot pour la proposition correspondante\r\n        emit Voted(msg.sender, _proposalId);\r\n    }\r\n\r\n    /// @notice Tally votes after ending voting session\r\n    /// @custom:accessibility Admin\r\n    function tallyVotes() external onlyOwner onlyAfterVotingSessionEnded {\r\n        // Initialise le compteur de votes gagnants  zro et l'indice de la proposition gagnante  zro\r\n        uint winningVoteCount = 0;\r\n        uint winningProposalIndex = 0;\r\n        // Parcourt toutes les propositions enregistres\r\n        for (uint i = 0; i < proposals.length; i++) {\r\n            // Si le nombre de votes pour la proposition actuelle est suprieur au nombre de votes gagnants, alors la proposition actuelle devient la proposition gagnante\r\n            if (proposals[i].voteCount > winningVoteCount) {\r\n                winningVoteCount = proposals[i].voteCount;\r\n                winningProposalIndex = i;\r\n            }\r\n        }\r\n        // Enregistre l'ID de la proposition gagnante et met  jour le statut de workflow\r\n        winningProposalId = winningProposalIndex;\r\n        currentWorkflowStatus = WorkflowStatus.VotesTallied;\r\n    }\r\n\r\n    function test() external pure returns (uint) {\r\n        return 1;\r\n    }\r\n\r\n}\r\n",
  "sourcePath": "C:\\Users\\Nathan\\IdeaProjects\\blockchain-vote-svelte\\back\\contracts\\Voting.sol",
  "compiler": {
    "name": "solc",
    "version": "0.8.19+commit.7dd6d404.Emscripten.clang"
  },
  "schemaVersion": "3.4.13",
  "updatedAt": "2023-05-09T21:22:33.641Z",
  "networkType": "ethereum",
  "devdoc": {
    "author": "Wsh on est vraiment 8 ? / Modified by Nathan",
    "kind": "dev",
    "methods": {
      "endProposalsRegistration()": {
        "custom:accessibility": "Admin"
      },
      "endVotingSession()": {
        "custom:accessibility": "Admin"
      },
      "getProposalsLength()": {
        "custom:accessibility": "External"
      },
      "owner()": {
        "details": "Returns the address of the current owner."
      },
      "registerProposal(string)": {
        "custom:accessibility": "Voters",
        "params": {
          "_description": ": Description of their proposal"
        }
      },
      "registerVoters(address[])": {
        "custom:accessibility": "Admin",
        "params": {
          "_voters": ": Address of voters"
        }
      },
      "renounceOwnership()": {
        "details": "Leaves the contract without owner. It will not be possible to call `onlyOwner` functions anymore. Can only be called by the current owner. NOTE: Renouncing ownership will leave the contract without an owner, thereby removing any functionality that is only available to the owner."
      },
      "startProposalsRegistration()": {
        "custom:accessibility": "Admin"
      },
      "startVotingSession()": {
        "custom:accessibility": "Admin"
      },
      "tallyVotes()": {
        "custom:accessibility": "Admin"
      },
      "transferOwnership(address)": {
        "details": "Transfers ownership of the contract to a new account (`newOwner`). Can only be called by the current owner."
      },
      "vote(uint256)": {
        "custom:accessibility": "Voters",
        "params": {
          "_proposalId": ": Id of proposal"
        }
      }
    },
    "title": "A voting system",
    "version": 1
  },
  "userdoc": {
    "kind": "user",
    "methods": {
      "endProposalsRegistration()": {
        "notice": "End proposal session"
      },
      "endVotingSession()": {
        "notice": "End voting session"
      },
      "getProposalsLength()": {
        "notice": "Get proposal array length to get array in front"
      },
      "registerProposal(string)": {
        "notice": "For users to register proposal"
      },
      "registerVoters(address[])": {
        "notice": "Register voters"
      },
      "startProposalsRegistration()": {
        "notice": "Start proposal session"
      },
      "startVotingSession()": {
        "notice": "Start voting session"
      },
      "tallyVotes()": {
        "notice": "Tally votes after ending voting session"
      },
      "vote(uint256)": {
        "notice": "For users to vote"
      }
    },
    "notice": "This system permit users to make proposals and vote them",
    "version": 1
  }
}