{
  "contractName": "Voting",
  "abi": [
    {
      "anonymous": false,
      "inputs": [
        {
          "indexed": true,
          "internalType": "address",
          "name": "previousOwner",
          "type": "address"
        },
        {
          "indexed": true,
          "internalType": "address",
          "name": "newOwner",
          "type": "address"
        }
      ],
      "name": "OwnershipTransferred",
      "type": "event"
    },
    {
      "anonymous": false,
      "inputs": [
        {
          "indexed": false,
          "internalType": "uint256",
          "name": "proposalId",
          "type": "uint256"
        }
      ],
      "name": "ProposalRegistered",
      "type": "event"
    },
    {
      "anonymous": false,
      "inputs": [
        {
          "indexed": false,
          "internalType": "address",
          "name": "voter",
          "type": "address"
        },
        {
          "indexed": false,
          "internalType": "uint256",
          "name": "proposalId",
          "type": "uint256"
        }
      ],
      "name": "Voted",
      "type": "event"
    },
    {
      "anonymous": false,
      "inputs": [
        {
          "indexed": false,
          "internalType": "address",
          "name": "voterAddress",
          "type": "address"
        }
      ],
      "name": "VoterRegistered",
      "type": "event"
    },
    {
      "anonymous": false,
      "inputs": [
        {
          "indexed": false,
          "internalType": "enum Voting.WorkflowStatus",
          "name": "previousStatus",
          "type": "uint8"
        },
        {
          "indexed": false,
          "internalType": "enum Voting.WorkflowStatus",
          "name": "newStatus",
          "type": "uint8"
        }
      ],
      "name": "WorkflowStatusChange",
      "type": "event"
    },
    {
      "inputs": [],
      "name": "admin",
      "outputs": [
        {
          "internalType": "address",
          "name": "",
          "type": "address"
        }
      ],
      "stateMutability": "view",
      "type": "function",
      "constant": true
    },
    {
      "inputs": [],
      "name": "currentWorkflowStatus",
      "outputs": [
        {
          "internalType": "enum Voting.WorkflowStatus",
          "name": "",
          "type": "uint8"
        }
      ],
      "stateMutability": "view",
      "type": "function",
      "constant": true
    },
    {
      "inputs": [],
      "name": "owner",
      "outputs": [
        {
          "internalType": "address",
          "name": "",
          "type": "address"
        }
      ],
      "stateMutability": "view",
      "type": "function",
      "constant": true
    },
    {
      "inputs": [
        {
          "internalType": "uint256",
          "name": "",
          "type": "uint256"
        }
      ],
      "name": "proposals",
      "outputs": [
        {
          "internalType": "string",
          "name": "description",
          "type": "string"
        },
        {
          "internalType": "uint256",
          "name": "voteCount",
          "type": "uint256"
        }
      ],
      "stateMutability": "view",
      "type": "function",
      "constant": true
    },
    {
      "inputs": [],
      "name": "renounceOwnership",
      "outputs": [],
      "stateMutability": "nonpayable",
      "type": "function"
    },
    {
      "inputs": [
        {
          "internalType": "address",
          "name": "newOwner",
          "type": "address"
        }
      ],
      "name": "transferOwnership",
      "outputs": [],
      "stateMutability": "nonpayable",
      "type": "function"
    },
    {
      "inputs": [
        {
          "internalType": "address",
          "name": "",
          "type": "address"
        }
      ],
      "name": "voters",
      "outputs": [
        {
          "internalType": "bool",
          "name": "isRegistered",
          "type": "bool"
        },
        {
          "internalType": "bool",
          "name": "hasVoted",
          "type": "bool"
        },
        {
          "internalType": "uint256",
          "name": "votedProposalId",
          "type": "uint256"
        }
      ],
      "stateMutability": "view",
      "type": "function",
      "constant": true
    },
    {
      "inputs": [],
      "name": "getProposalsLength",
      "outputs": [
        {
          "internalType": "uint256",
          "name": "",
          "type": "uint256"
        }
      ],
      "stateMutability": "view",
      "type": "function",
      "constant": true
    },
    {
      "inputs": [
        {
          "internalType": "address[]",
          "name": "_voters",
          "type": "address[]"
        }
      ],
      "name": "registerVoters",
      "outputs": [],
      "stateMutability": "nonpayable",
      "type": "function"
    },
    {
      "inputs": [],
      "name": "startProposalsRegistration",
      "outputs": [],
      "stateMutability": "nonpayable",
      "type": "function"
    },
    {
      "inputs": [],
      "name": "endProposalsRegistration",
      "outputs": [],
      "stateMutability": "nonpayable",
      "type": "function"
    },
    {
      "inputs": [],
      "name": "startVotingSession",
      "outputs": [],
      "stateMutability": "nonpayable",
      "type": "function"
    },
    {
      "inputs": [],
      "name": "endVotingSession",
      "outputs": [],
      "stateMutability": "nonpayable",
      "type": "function"
    },
    {
      "inputs": [
        {
          "internalType": "string",
          "name": "_description",
          "type": "string"
        }
      ],
      "name": "registerProposal",
      "outputs": [],
      "stateMutability": "nonpayable",
      "type": "function"
    },
    {
      "inputs": [
        {
          "internalType": "uint256",
          "name": "_proposalId",
          "type": "uint256"
        }
      ],
      "name": "vote",
      "outputs": [],
      "stateMutability": "nonpayable",
      "type": "function"
    },
    {
      "inputs": [],
      "name": "tallyVotes",
      "outputs": [],
      "stateMutability": "nonpayable",
      "type": "function"
    },
    {
      "inputs": [],
      "name": "test",
      "outputs": [
        {
          "internalType": "uint256",
          "name": "",
          "type": "uint256"
        }
      ],
      "stateMutability": "pure",
      "type": "function",
      "constant": true
    }
  ],
  "bytecode": "0x608060405234801561001057600080fd5b5061002d61002261003260201b60201c565b61003a60201b60201c565b6100fe565b600033905090565b60008060009054906101000a900473ffffffffffffffffffffffffffffffffffffffff169050816000806101000a81548173ffffffffffffffffffffffffffffffffffffffff021916908373ffffffffffffffffffffffffffffffffffffffff1602179055508173ffffffffffffffffffffffffffffffffffffffff168173ffffffffffffffffffffffffffffffffffffffff167f8be0079c531659141344cd1fd0a4f28419497f9722a3daafe3b4186f6b6457e060405160405180910390a35050565b6121a8806200010e6000396000f3fe608060405234801561001057600080fd5b506004361061010b5760003560e01c8063a7bfab16116100a2578063ee74c67811610071578063ee74c67814610235578063f2fde38b1461023f578063f7ad76451461025b578063f851a44014610279578063f8a8fd6d146102975761010b565b8063a7bfab16146101e7578063bc378a73146101f1578063d55ec9c11461020f578063e09b8c791461022b5761010b565b80636c297445116100de5780636c29744514610183578063715018a61461018d5780638da5cb5b14610197578063a3ec138d146101b55761010b565b80630121b93f14610110578063013cf08b1461012c5780632f95355b1461015d578063378a217814610179575b600080fd5b61012a60048036038101906101259190611157565b6102b5565b005b61014660048036038101906101419190611157565b6104ed565b604051610154929190611223565b60405180910390f35b61017760048036038101906101729190611388565b6105a9565b005b61018161075c565b005b61018b610890565b005b610195610984565b005b61019f610998565b6040516101ac9190611412565b60405180910390f35b6101cf60048036038101906101ca9190611459565b6109c1565b6040516101de939291906114a1565b60405180910390f35b6101ef610a05565b005b6101f9610af8565b60405161020691906114d8565b60405180910390f35b610229600480360381019061022491906115bb565b610b05565b005b610233610d16565b005b61023d610e0a565b005b61025960048036038101906102549190611459565b610efe565b005b610263610f81565b604051610270919061167b565b60405180910390f35b610281610f94565b60405161028e9190611412565b60405180910390f35b61029f610fba565b6040516102ac91906114d8565b60405180910390f35b600260003373ffffffffffffffffffffffffffffffffffffffff1673ffffffffffffffffffffffffffffffffffffffff16815260200190815260200160002060000160009054906101000a900460ff16610344576040517f08c379a000000000000000000000000000000000000000000000000000000000815260040161033b906116e2565b60405180910390fd5b6003600581111561035857610357611604565b5b600460009054906101000a900460ff16600581111561037a57610379611604565b5b146103ba576040517f08c379a00000000000000000000000000000000000000000000000000000000081526004016103b190611774565b60405180910390fd5b6000600260003373ffffffffffffffffffffffffffffffffffffffff1673ffffffffffffffffffffffffffffffffffffffff16815260200190815260200160002090508060000160019054906101000a900460ff161561044f576040517f08c379a0000000000000000000000000000000000000000000000000000000008152600401610446906117e0565b60405180910390fd5b60018160000160016101000a81548160ff0219169083151502179055508181600101819055506003828154811061048957610488611800565b5b906000526020600020906002020160010160008154809291906104ab9061185e565b91905055507f4d99b957a2bc29a30ebd96a7be8e68fe50a3c701db28a91436490b7d53870ca433836040516104e19291906118a6565b60405180910390a15050565b600381815481106104fd57600080fd5b9060005260206000209060020201600091509050806000018054610520906118fe565b80601f016020809104026020016040519081016040528092919081815260200182805461054c906118fe565b80156105995780601f1061056e57610100808354040283529160200191610599565b820191906000526020600020905b81548152906001019060200180831161057c57829003601f168201915b5050505050908060010154905082565b600260003373ffffffffffffffffffffffffffffffffffffffff1673ffffffffffffffffffffffffffffffffffffffff16815260200190815260200160002060000160009054906101000a900460ff16610638576040517f08c379a000000000000000000000000000000000000000000000000000000000815260040161062f906116e2565b60405180910390fd5b6001600581111561064c5761064b611604565b5b600460009054906101000a900460ff16600581111561066e5761066d611604565b5b146106ae576040517f08c379a00000000000000000000000000000000000000000000000000000000081526004016106a5906119a1565b60405180910390fd5b600360405180604001604052808381526020016000815250908060018154018082558091505060019003906000526020600020906002020160009091909190915060008201518160000190816107049190611b6d565b506020820151816001015550507f92e393e9b54e2f801d3ea4beb0c5e71a21cc34a5d34b77d0fb8a3aa1650dc18f60016003805490506107449190611c3f565b60405161075191906114d8565b60405180910390a150565b610764610fc3565b6004600581111561077857610777611604565b5b600460009054906101000a900460ff16600581111561079a57610799611604565b5b146107da576040517f08c379a00000000000000000000000000000000000000000000000000000000081526004016107d190611ce5565b60405180910390fd5b60008060005b60038054905081101561085957826003828154811061080257610801611800565b5b9060005260206000209060020201600101541115610846576003818154811061082e5761082d611800565b5b90600052602060002090600202016001015492508091505b80806108519061185e565b9150506107e0565b50806001819055506005600460006101000a81548160ff0219169083600581111561088757610886611604565b5b02179055505050565b610898610fc3565b600160058111156108ac576108ab611604565b5b600460009054906101000a900460ff1660058111156108ce576108cd611604565b5b1461090e576040517f08c379a000000000000000000000000000000000000000000000000000000000815260040161090590611d77565b60405180910390fd5b6002600460006101000a81548160ff0219169083600581111561093457610933611604565b5b02179055507f0a97a4ee45751e2abf3e4fc8946939630b11b371ea8ae39ccdc3056e98f5cc3f6001600460009054906101000a900460ff1660405161097a929190611d97565b60405180910390a1565b61098c610fc3565b6109966000611041565b565b60008060009054906101000a900473ffffffffffffffffffffffffffffffffffffffff16905090565b60026020528060005260406000206000915090508060000160009054906101000a900460ff16908060000160019054906101000a900460ff16908060010154905083565b610a0d610fc3565b60036005811115610a2157610a20611604565b5b600460009054906101000a900460ff166005811115610a4357610a42611604565b5b14610a83576040517f08c379a0000000000000000000000000000000000000000000000000000000008152600401610a7a90611e32565b60405180910390fd5b60048060006101000a81548160ff02191690836005811115610aa857610aa7611604565b5b02179055507f0a97a4ee45751e2abf3e4fc8946939630b11b371ea8ae39ccdc3056e98f5cc3f6003600460009054906101000a900460ff16604051610aee929190611d97565b60405180910390a1565b6000600380549050905090565b610b0d610fc3565b60006005811115610b2157610b20611604565b5b600460009054906101000a900460ff166005811115610b4357610b42611604565b5b14610b83576040517f08c379a0000000000000000000000000000000000000000000000000000000008152600401610b7a90611ec4565b60405180910390fd5b60005b8151811015610d125760026000838381518110610ba657610ba5611800565b5b602002602001015173ffffffffffffffffffffffffffffffffffffffff1673ffffffffffffffffffffffffffffffffffffffff16815260200190815260200160002060000160009054906101000a900460ff1615610c39576040517f08c379a0000000000000000000000000000000000000000000000000000000008152600401610c3090611f30565b60405180910390fd5b600160026000848481518110610c5257610c51611800565b5b602002602001015173ffffffffffffffffffffffffffffffffffffffff1673ffffffffffffffffffffffffffffffffffffffff16815260200190815260200160002060000160006101000a81548160ff0219169083151502179055507fb6be2187d059cc2a55fe29e0e503b566e1e0f8c8780096e185429350acffd3dd828281518110610ce257610ce1611800565b5b6020026020010151604051610cf79190611412565b60405180910390a18080610d0a9061185e565b915050610b86565b5050565b610d1e610fc3565b60006005811115610d3257610d31611604565b5b600460009054906101000a900460ff166005811115610d5457610d53611604565b5b14610d94576040517f08c379a0000000000000000000000000000000000000000000000000000000008152600401610d8b90611fc2565b60405180910390fd5b6001600460006101000a81548160ff02191690836005811115610dba57610db9611604565b5b02179055507f0a97a4ee45751e2abf3e4fc8946939630b11b371ea8ae39ccdc3056e98f5cc3f6000600460009054906101000a900460ff16604051610e00929190611d97565b60405180910390a1565b610e12610fc3565b60026005811115610e2657610e25611604565b5b600460009054906101000a900460ff166005811115610e4857610e47611604565b5b14610e88576040517f08c379a0000000000000000000000000000000000000000000000000000000008152600401610e7f90612054565b60405180910390fd5b6003600460006101000a81548160ff02191690836005811115610eae57610ead611604565b5b02179055507f0a97a4ee45751e2abf3e4fc8946939630b11b371ea8ae39ccdc3056e98f5cc3f6002600460009054906101000a900460ff16604051610ef4929190611d97565b60405180910390a1565b610f06610fc3565b600073ffffffffffffffffffffffffffffffffffffffff168173ffffffffffffffffffffffffffffffffffffffff1603610f75576040517f08c379a0000000000000000000000000000000000000000000000000000000008152600401610f6c906120e6565b60405180910390fd5b610f7e81611041565b50565b600460009054906101000a900460ff1681565b600460019054906101000a900473ffffffffffffffffffffffffffffffffffffffff1681565b60006001905090565b610fcb611105565b73ffffffffffffffffffffffffffffffffffffffff16610fe9610998565b73ffffffffffffffffffffffffffffffffffffffff161461103f576040517f08c379a000000000000000000000000000000000000000000000000000000000815260040161103690612152565b60405180910390fd5b565b60008060009054906101000a900473ffffffffffffffffffffffffffffffffffffffff169050816000806101000a81548173ffffffffffffffffffffffffffffffffffffffff021916908373ffffffffffffffffffffffffffffffffffffffff1602179055508173ffffffffffffffffffffffffffffffffffffffff168173ffffffffffffffffffffffffffffffffffffffff167f8be0079c531659141344cd1fd0a4f28419497f9722a3daafe3b4186f6b6457e060405160405180910390a35050565b600033905090565b6000604051905090565b600080fd5b600080fd5b6000819050919050565b61113481611121565b811461113f57600080fd5b50565b6000813590506111518161112b565b92915050565b60006020828403121561116d5761116c611117565b5b600061117b84828501611142565b91505092915050565b600081519050919050565b600082825260208201905092915050565b60005b838110156111be5780820151818401526020810190506111a3565b60008484015250505050565b6000601f19601f8301169050919050565b60006111e682611184565b6111f0818561118f565b93506112008185602086016111a0565b611209816111ca565b840191505092915050565b61121d81611121565b82525050565b6000604082019050818103600083015261123d81856111db565b905061124c6020830184611214565b9392505050565b600080fd5b600080fd5b7f4e487b7100000000000000000000000000000000000000000000000000000000600052604160045260246000fd5b611295826111ca565b810181811067ffffffffffffffff821117156112b4576112b361125d565b5b80604052505050565b60006112c761110d565b90506112d3828261128c565b919050565b600067ffffffffffffffff8211156112f3576112f261125d565b5b6112fc826111ca565b9050602081019050919050565b82818337600083830152505050565b600061132b611326846112d8565b6112bd565b90508281526020810184848401111561134757611346611258565b5b611352848285611309565b509392505050565b600082601f83011261136f5761136e611253565b5b813561137f848260208601611318565b91505092915050565b60006020828403121561139e5761139d611117565b5b600082013567ffffffffffffffff8111156113bc576113bb61111c565b5b6113c88482850161135a565b91505092915050565b600073ffffffffffffffffffffffffffffffffffffffff82169050919050565b60006113fc826113d1565b9050919050565b61140c816113f1565b82525050565b60006020820190506114276000830184611403565b92915050565b611436816113f1565b811461144157600080fd5b50565b6000813590506114538161142d565b92915050565b60006020828403121561146f5761146e611117565b5b600061147d84828501611444565b91505092915050565b60008115159050919050565b61149b81611486565b82525050565b60006060820190506114b66000830186611492565b6114c36020830185611492565b6114d06040830184611214565b949350505050565b60006020820190506114ed6000830184611214565b92915050565b600067ffffffffffffffff82111561150e5761150d61125d565b5b602082029050602081019050919050565b600080fd5b6000611537611532846114f3565b6112bd565b9050808382526020820190506020840283018581111561155a5761155961151f565b5b835b81811015611583578061156f8882611444565b84526020840193505060208101905061155c565b5050509392505050565b600082601f8301126115a2576115a1611253565b5b81356115b2848260208601611524565b91505092915050565b6000602082840312156115d1576115d0611117565b5b600082013567ffffffffffffffff8111156115ef576115ee61111c565b5b6115fb8482850161158d565b91505092915050565b7f4e487b7100000000000000000000000000000000000000000000000000000000600052602160045260246000fd5b6006811061164457611643611604565b5b50565b600081905061165582611633565b919050565b600061166582611647565b9050919050565b6116758161165a565b82525050565b6000602082019050611690600083018461166c565b92915050565b7f596f7520617265206e6f74207265676973746572656420746f20766f74652e00600082015250565b60006116cc601f8361118f565b91506116d782611696565b602082019050919050565b600060208201905081810360008301526116fb816116bf565b9050919050565b7f54686520766f74696e672073657373696f6e206973206e6f742061637469766560008201527f2e00000000000000000000000000000000000000000000000000000000000000602082015250565b600061175e60218361118f565b915061176982611702565b604082019050919050565b6000602082019050818103600083015261178d81611751565b9050919050565b7f596f75206861766520616c726561647920766f7465642e000000000000000000600082015250565b60006117ca60178361118f565b91506117d582611794565b602082019050919050565b600060208201905081810360008301526117f9816117bd565b9050919050565b7f4e487b7100000000000000000000000000000000000000000000000000000000600052603260045260246000fd5b7f4e487b7100000000000000000000000000000000000000000000000000000000600052601160045260246000fd5b600061186982611121565b91507fffffffffffffffffffffffffffffffffffffffffffffffffffffffffffffffff820361189b5761189a61182f565b5b600182019050919050565b60006040820190506118bb6000830185611403565b6118c86020830184611214565b9392505050565b7f4e487b7100000000000000000000000000000000000000000000000000000000600052602260045260246000fd5b6000600282049050600182168061191657607f821691505b602082108103611929576119286118cf565b5b50919050565b7f50726f706f73616c7320726567697374726174696f6e206973206e6f7420616360008201527f746976652e000000000000000000000000000000000000000000000000000000602082015250565b600061198b60258361118f565b91506119968261192f565b604082019050919050565b600060208201905081810360008301526119ba8161197e565b9050919050565b60008190508160005260206000209050919050565b60006020601f8301049050919050565b600082821b905092915050565b600060088302611a237fffffffffffffffffffffffffffffffffffffffffffffffffffffffffffffffff826119e6565b611a2d86836119e6565b95508019841693508086168417925050509392505050565b6000819050919050565b6000611a6a611a65611a6084611121565b611a45565b611121565b9050919050565b6000819050919050565b611a8483611a4f565b611a98611a9082611a71565b8484546119f3565b825550505050565b600090565b611aad611aa0565b611ab8818484611a7b565b505050565b5b81811015611adc57611ad1600082611aa5565b600181019050611abe565b5050565b601f821115611b2157611af2816119c1565b611afb846119d6565b81016020851015611b0a578190505b611b1e611b16856119d6565b830182611abd565b50505b505050565b600082821c905092915050565b6000611b4460001984600802611b26565b1980831691505092915050565b6000611b5d8383611b33565b9150826002028217905092915050565b611b7682611184565b67ffffffffffffffff811115611b8f57611b8e61125d565b5b611b9982546118fe565b611ba4828285611ae0565b600060209050601f831160018114611bd75760008415611bc5578287015190505b611bcf8582611b51565b865550611c37565b601f198416611be5866119c1565b60005b82811015611c0d57848901518255600182019150602085019450602081019050611be8565b86831015611c2a5784890151611c26601f891682611b33565b8355505b6001600288020188555050505b505050505050565b6000611c4a82611121565b9150611c5583611121565b9250828203905081811115611c6d57611c6c61182f565b5b92915050565b7f54686520766f74696e672073657373696f6e206973207374696c6c206163746960008201527f76652e0000000000000000000000000000000000000000000000000000000000602082015250565b6000611ccf60238361118f565b9150611cda82611c73565b604082019050919050565b60006020820190508181036000830152611cfe81611cc2565b9050919050565b7f43616e6e6f7420656e642070726f706f73616c7320726567697374726174696f60008201527f6e20617420746869732074696d652e0000000000000000000000000000000000602082015250565b6000611d61602f8361118f565b9150611d6c82611d05565b604082019050919050565b60006020820190508181036000830152611d9081611d54565b9050919050565b6000604082019050611dac600083018561166c565b611db9602083018461166c565b9392505050565b7f43616e6e6f7420656e6420766f74696e672073657373696f6e2061742074686960008201527f732074696d652e00000000000000000000000000000000000000000000000000602082015250565b6000611e1c60278361118f565b9150611e2782611dc0565b604082019050919050565b60006020820190508181036000830152611e4b81611e0f565b9050919050565b7f43616e6e6f7420726567697374657220766f746572732061742074686973207460008201527f696d652e00000000000000000000000000000000000000000000000000000000602082015250565b6000611eae60248361118f565b9150611eb982611e52565b604082019050919050565b60006020820190508181036000830152611edd81611ea1565b9050919050565b7f566f74657220616c726561647920726567697374657265642e00000000000000600082015250565b6000611f1a60198361118f565b9150611f2582611ee4565b602082019050919050565b60006020820190508181036000830152611f4981611f0d565b9050919050565b7f43616e6e6f742073746172742070726f706f73616c732072656769737472617460008201527f696f6e20617420746869732074696d652e000000000000000000000000000000602082015250565b6000611fac60318361118f565b9150611fb782611f50565b604082019050919050565b60006020820190508181036000830152611fdb81611f9f565b9050919050565b7f43616e6e6f7420737461727420766f74696e672073657373696f6e206174207460008201527f6869732074696d652e0000000000000000000000000000000000000000000000602082015250565b600061203e60298361118f565b915061204982611fe2565b604082019050919050565b6000602082019050818103600083015261206d81612031565b9050919050565b7f4f776e61626c653a206e6577206f776e657220697320746865207a65726f206160008201527f6464726573730000000000000000000000000000000000000000000000000000602082015250565b60006120d060268361118f565b91506120db82612074565b604082019050919050565b600060208201905081810360008301526120ff816120c3565b9050919050565b7f4f776e61626c653a2063616c6c6572206973206e6f7420746865206f776e6572600082015250565b600061213c60208361118f565b915061214782612106565b602082019050919050565b6000602082019050818103600083015261216b8161212f565b905091905056fea26469706673582212208a0f8aaef2bdec38039a1b1c8d1ad495ebf8c285a7e75cbd3e785d2d175198c564736f6c63430008130033",
  "immutableReferences": {},
  "source": "// SPDX-License-Identifier: GPL-3.0\r\npragma solidity ^0.8.4;\r\n\r\nimport \"@openzeppelin/contracts/access/Ownable.sol\";\r\n\r\ncontract Voting is Ownable {\r\n\r\n    // Structures de donnes\r\n    \r\n    struct Voter {\r\n        bool isRegistered;\r\n        bool hasVoted;\r\n        uint votedProposalId;\r\n    }\r\n    \r\n    struct Proposal {\r\n        string description;\r\n        uint voteCount;\r\n    }\r\n\r\n    // numration des tats du processus de vote\r\n    \r\n    enum WorkflowStatus {\r\n        RegisteringVoters,\r\n        ProposalsRegistrationStarted,\r\n        ProposalsRegistrationEnded,\r\n        VotingSessionStarted,\r\n        VotingSessionEnded,\r\n        VotesTallied\r\n    }\r\n\r\n    uint winningProposalId;\r\n\r\n    // vnements\r\n    \r\n    event VoterRegistered(address voterAddress);\r\n    event WorkflowStatusChange(WorkflowStatus previousStatus, WorkflowStatus newStatus);\r\n    event ProposalRegistered(uint proposalId);\r\n    event Voted (address voter, uint proposalId);\r\n\r\n    // Variables d'tat\r\n\r\n    mapping(address => Voter) public voters;\r\n    Proposal[] public proposals;\r\n    WorkflowStatus public currentWorkflowStatus;\r\n    address public admin;\r\n\r\n    // Modificateurs\r\n\r\n    modifier onlyRegisteredVoter() {\r\n        require(voters[msg.sender].isRegistered, \"You are not registered to vote.\");\r\n        _;\r\n    }\r\n\r\n    modifier onlyDuringVotingSession() {\r\n        require(currentWorkflowStatus == WorkflowStatus.VotingSessionStarted, \"The voting session is not active.\");\r\n        _;\r\n    }\r\n\r\n    modifier onlyAfterVotingSessionEnded() {\r\n        require(currentWorkflowStatus == WorkflowStatus.VotingSessionEnded, \"The voting session is still active.\");\r\n        _;\r\n    }\r\n\r\n    modifier onlyDuringProposalsRegistration() {\r\n        require(currentWorkflowStatus == WorkflowStatus.ProposalsRegistrationStarted, \"Proposals registration is not active.\");\r\n        _;\r\n    }\r\n\r\n    modifier onlyAfterProposalsRegistrationEnded() {\r\n        require(currentWorkflowStatus == WorkflowStatus.ProposalsRegistrationEnded, \"Proposals registration is still active.\");\r\n        _;\r\n    }\r\n\r\n    function getProposalsLength() public view returns (uint){\r\n        return proposals.length;\r\n    }\r\n\r\n    // Fonctions d'administration\r\n\r\n    function registerVoters(address[] memory _voters) public onlyOwner {\r\n        // Vrifie que l'tat courant du workflow est en cours d'inscription des lecteurs.\r\n        require(currentWorkflowStatus == WorkflowStatus.RegisteringVoters, \"Cannot register voters at this time.\");\r\n        // Boucle sur la liste des adresses d'lecteurs fournie et vrifie que chaque lecteur n'est pas dj enregistr.\r\n        for (uint i = 0; i < _voters.length; i++) {\r\n            require(!voters[_voters[i]].isRegistered, \"Voter already registered.\");\r\n            // Enregistre l'lecteur comme tant enregistr.\r\n            voters[_voters[i]].isRegistered = true;\r\n            // met un vnement pour signaler que l'lecteur a t enregistr.\r\n            emit VoterRegistered(_voters[i]);\r\n        }\r\n    }\r\n\r\n    function startProposalsRegistration() public onlyOwner {\r\n        // Vrifie que l'tat courant du workflow est en cours d'inscription des lecteurs.\r\n        require(currentWorkflowStatus == WorkflowStatus.RegisteringVoters, \"Cannot start proposals registration at this time.\");\r\n        // Modifie l'tat courant du workflow pour indiquer que l'inscription des propositions a commenc.\r\n        currentWorkflowStatus = WorkflowStatus.ProposalsRegistrationStarted;\r\n        // met un vnement pour signaler que l'tat du workflow a chang.\r\n        emit WorkflowStatusChange(WorkflowStatus.RegisteringVoters, currentWorkflowStatus);\r\n    }\r\n\r\n    function endProposalsRegistration() public onlyOwner {\r\n        // Vrifie que l'tat courant du workflow est en cours d'inscription des propositions.\r\n        require(currentWorkflowStatus == WorkflowStatus.ProposalsRegistrationStarted, \"Cannot end proposals registration at this time.\");\r\n        // Modifie l'tat courant du workflow pour indiquer que l'inscription des propositions est termine.\r\n        currentWorkflowStatus = WorkflowStatus.ProposalsRegistrationEnded;\r\n        // met un vnement pour signaler que l'tat du workflow a chang.\r\n        emit WorkflowStatusChange(WorkflowStatus.ProposalsRegistrationStarted, currentWorkflowStatus);\r\n    }\r\n\r\n    function startVotingSession() public onlyOwner {\r\n        // Vrifie que l'tat courant du workflow est l'inscription des propositions termine.\r\n        require(currentWorkflowStatus == WorkflowStatus.ProposalsRegistrationEnded, \"Cannot start voting session at this time.\");\r\n        // Modifie l'tat courant du workflow pour indiquer que la session de vote a commenc.\r\n        currentWorkflowStatus = WorkflowStatus.VotingSessionStarted;\r\n        // met un vnement pour signaler que l'tat du workflow a chang.\r\n        emit WorkflowStatusChange(WorkflowStatus.ProposalsRegistrationEnded, currentWorkflowStatus);\r\n    }\r\n\r\n    function endVotingSession() public onlyOwner {\r\n        // Vrifie que l'tat courant du workflow est la session de vote en cours.\r\n        require(currentWorkflowStatus == WorkflowStatus.VotingSessionStarted, \"Cannot end voting session at this time.\");\r\n        // Modifie l'tat courant du workflow pour indiquer que la session de vote est termine.\r\n        currentWorkflowStatus = WorkflowStatus.VotingSessionEnded;\r\n        // met un vnement pour signaler que l'tat du workflow a chang.\r\n        emit WorkflowStatusChange(WorkflowStatus.VotingSessionStarted, currentWorkflowStatus);\r\n    }\r\n\r\n    function registerProposal(string memory _description) public onlyRegisteredVoter onlyDuringProposalsRegistration {\r\n        // La fonction permet  un lecteur enregistr de proposer une nouvelle proposition pendant la priode d'enregistrement des propositions.\r\n        proposals.push(Proposal({\r\n            description: _description,\r\n            voteCount: 0\r\n        }));\r\n        // Ajouter une nouvelle proposition  la liste des propositions existantes et mettre un vnement.\r\n        emit ProposalRegistered(proposals.length - 1);\r\n    }\r\n\r\n    function vote(uint _proposalId) public onlyRegisteredVoter onlyDuringVotingSession {\r\n        // Rcupre le votant actuel depuis le mapping de votants\r\n        Voter storage voter = voters[msg.sender];\r\n        // Vrifie si le votant n'a pas dj vot\r\n        require(!voter.hasVoted, \"You have already voted.\");\r\n        // Enregistre le vote et le votant dans les mappings correspondants\r\n        voter.hasVoted = true;\r\n        voter.votedProposalId = _proposalId;\r\n        // Incrmente le compteur de votes pour la proposition correspondante\r\n        proposals[_proposalId].voteCount++;\r\n        // met un vnement pour signaler que le votant a vot pour la proposition correspondante\r\n        emit Voted(msg.sender, _proposalId);\r\n    }\r\n\r\n    function tallyVotes() public onlyOwner onlyAfterVotingSessionEnded {\r\n        // Initialise le compteur de votes gagnants  zro et l'indice de la proposition gagnante  zro\r\n        uint winningVoteCount = 0;\r\n        uint winningProposalIndex = 0;\r\n        // Parcourt toutes les propositions enregistres\r\n        for (uint i = 0; i < proposals.length; i++) {\r\n            // Si le nombre de votes pour la proposition actuelle est suprieur au nombre de votes gagnants, alors la proposition actuelle devient la proposition gagnante\r\n            if (proposals[i].voteCount > winningVoteCount) {\r\n                winningVoteCount = proposals[i].voteCount;\r\n                winningProposalIndex = i;\r\n            }\r\n        }\r\n        // Enregistre l'ID de la proposition gagnante et met  jour le statut de workflow\r\n        winningProposalId = winningProposalIndex;\r\n        currentWorkflowStatus = WorkflowStatus.VotesTallied;\r\n    }\r\n    function test() public pure returns(uint) {\r\n        return 1;\r\n    }\r\n\r\n}\r\n",
  "sourcePath": "C:\\Users\\Nathan\\IdeaProjects\\blockchain-vote-svelte\\back\\contracts\\Voting.sol",
  "compiler": {
    "name": "solc",
    "version": "0.8.19+commit.7dd6d404.Emscripten.clang"
  },
  "schemaVersion": "3.4.13",
  "updatedAt": "2023-05-09T20:38:41.181Z",
  "networkType": "ethereum",
  "devdoc": {
    "kind": "dev",
    "methods": {
      "owner()": {
        "details": "Returns the address of the current owner."
      },
      "renounceOwnership()": {
        "details": "Leaves the contract without owner. It will not be possible to call `onlyOwner` functions anymore. Can only be called by the current owner. NOTE: Renouncing ownership will leave the contract without an owner, thereby removing any functionality that is only available to the owner."
      },
      "transferOwnership(address)": {
        "details": "Transfers ownership of the contract to a new account (`newOwner`). Can only be called by the current owner."
      }
    },
    "version": 1
  },
  "userdoc": {
    "kind": "user",
    "methods": {},
    "version": 1
  }
}