{
  "contractName": "Voting",
  "abi": [
    {
      "anonymous": false,
      "inputs": [
        {
          "indexed": true,
          "internalType": "address",
          "name": "previousOwner",
          "type": "address"
        },
        {
          "indexed": true,
          "internalType": "address",
          "name": "newOwner",
          "type": "address"
        }
      ],
      "name": "OwnershipTransferred",
      "type": "event"
    },
    {
      "anonymous": false,
      "inputs": [
        {
          "indexed": false,
          "internalType": "uint256",
          "name": "proposalId",
          "type": "uint256"
        }
      ],
      "name": "ProposalRegistered",
      "type": "event"
    },
    {
      "anonymous": false,
      "inputs": [
        {
          "indexed": false,
          "internalType": "address",
          "name": "voter",
          "type": "address"
        },
        {
          "indexed": false,
          "internalType": "uint256",
          "name": "proposalId",
          "type": "uint256"
        }
      ],
      "name": "Voted",
      "type": "event"
    },
    {
      "anonymous": false,
      "inputs": [
        {
          "indexed": false,
          "internalType": "address",
          "name": "voterAddress",
          "type": "address"
        }
      ],
      "name": "VoterRegistered",
      "type": "event"
    },
    {
      "anonymous": false,
      "inputs": [
        {
          "indexed": false,
          "internalType": "enum Voting.WorkflowStatus",
          "name": "previousStatus",
          "type": "uint8"
        },
        {
          "indexed": false,
          "internalType": "enum Voting.WorkflowStatus",
          "name": "newStatus",
          "type": "uint8"
        }
      ],
      "name": "WorkflowStatusChange",
      "type": "event"
    },
    {
      "inputs": [],
      "name": "owner",
      "outputs": [
        {
          "internalType": "address",
          "name": "",
          "type": "address"
        }
      ],
      "stateMutability": "view",
      "type": "function",
      "constant": true
    },
    {
      "inputs": [],
      "name": "renounceOwnership",
      "outputs": [],
      "stateMutability": "nonpayable",
      "type": "function"
    },
    {
      "inputs": [
        {
          "internalType": "address",
          "name": "newOwner",
          "type": "address"
        }
      ],
      "name": "transferOwnership",
      "outputs": [],
      "stateMutability": "nonpayable",
      "type": "function"
    },
    {
      "inputs": [
        {
          "internalType": "address",
          "name": "_address",
          "type": "address"
        }
      ],
      "name": "isVoter",
      "outputs": [
        {
          "internalType": "bool",
          "name": "",
          "type": "bool"
        }
      ],
      "stateMutability": "view",
      "type": "function",
      "constant": true
    },
    {
      "inputs": [],
      "name": "getWorkflowStatus",
      "outputs": [
        {
          "internalType": "enum Voting.WorkflowStatus",
          "name": "",
          "type": "uint8"
        }
      ],
      "stateMutability": "view",
      "type": "function",
      "constant": true
    },
    {
      "inputs": [
        {
          "internalType": "uint256",
          "name": "_proposalId",
          "type": "uint256"
        }
      ],
      "name": "getOneProposal",
      "outputs": [
        {
          "components": [
            {
              "internalType": "string",
              "name": "description",
              "type": "string"
            },
            {
              "internalType": "uint256",
              "name": "voteCount",
              "type": "uint256"
            }
          ],
          "internalType": "struct Voting.Proposal",
          "name": "",
          "type": "tuple"
        }
      ],
      "stateMutability": "view",
      "type": "function",
      "constant": true
    },
    {
      "inputs": [],
      "name": "getProposalsLength",
      "outputs": [
        {
          "internalType": "uint256",
          "name": "",
          "type": "uint256"
        }
      ],
      "stateMutability": "view",
      "type": "function",
      "constant": true
    },
    {
      "inputs": [
        {
          "internalType": "address[]",
          "name": "_voters",
          "type": "address[]"
        }
      ],
      "name": "registerVoters",
      "outputs": [],
      "stateMutability": "nonpayable",
      "type": "function"
    },
    {
      "inputs": [],
      "name": "startProposalsRegistration",
      "outputs": [],
      "stateMutability": "nonpayable",
      "type": "function"
    },
    {
      "inputs": [],
      "name": "endProposalsRegistration",
      "outputs": [],
      "stateMutability": "nonpayable",
      "type": "function"
    },
    {
      "inputs": [],
      "name": "startVotingSession",
      "outputs": [],
      "stateMutability": "nonpayable",
      "type": "function"
    },
    {
      "inputs": [],
      "name": "endVotingSession",
      "outputs": [],
      "stateMutability": "nonpayable",
      "type": "function"
    },
    {
      "inputs": [
        {
          "internalType": "string",
          "name": "_description",
          "type": "string"
        }
      ],
      "name": "registerProposal",
      "outputs": [],
      "stateMutability": "nonpayable",
      "type": "function"
    },
    {
      "inputs": [
        {
          "internalType": "uint256",
          "name": "_proposalId",
          "type": "uint256"
        }
      ],
      "name": "vote",
      "outputs": [],
      "stateMutability": "nonpayable",
      "type": "function"
    },
    {
      "inputs": [],
      "name": "tallyVotes",
      "outputs": [],
      "stateMutability": "nonpayable",
      "type": "function"
    },
    {
      "inputs": [],
      "name": "test",
      "outputs": [
        {
          "internalType": "uint256",
          "name": "",
          "type": "uint256"
        }
      ],
      "stateMutability": "pure",
      "type": "function",
      "constant": true
    }
  ],
  "bytecode": "0x608060405234801561001057600080fd5b5061002d61002261003260201b60201c565b61003a60201b60201c565b6100fe565b600033905090565b60008060009054906101000a900473ffffffffffffffffffffffffffffffffffffffff169050816000806101000a81548173ffffffffffffffffffffffffffffffffffffffff021916908373ffffffffffffffffffffffffffffffffffffffff1602179055508173ffffffffffffffffffffffffffffffffffffffff168173ffffffffffffffffffffffffffffffffffffffff167f8be0079c531659141344cd1fd0a4f28419497f9722a3daafe3b4186f6b6457e060405160405180910390a35050565b6121e9806200010e6000396000f3fe608060405234801561001057600080fd5b50600436106101005760003560e01c8063a7bfab1611610097578063ee74c67811610066578063ee74c67814610227578063f2fde38b14610231578063f75d64a61461024d578063f8a8fd6d1461026b57610100565b8063a7bfab16146101d9578063bc378a73146101e3578063d55ec9c114610201578063e09b8c791461021d57610100565b8063715018a6116100d3578063715018a6146101515780638da5cb5b1461015b578063a2788cce14610179578063a7771ee3146101a957610100565b80630121b93f146101055780632f95355b14610121578063378a21781461013d5780636c29744514610147575b600080fd5b61011f600480360381019061011a9190611165565b610289565b005b61013b600480360381019061013691906112d8565b6104c1565b005b610145610674565b005b61014f6107a8565b005b61015961089c565b005b6101636108b0565b6040516101709190611362565b60405180910390f35b610193600480360381019061018e9190611165565b6108d9565b6040516101a09190611448565b60405180910390f35b6101c360048036038101906101be9190611496565b6109b1565b6040516101d091906114de565b60405180910390f35b6101e1610a1b565b005b6101eb610b0e565b6040516101f89190611508565b60405180910390f35b61021b600480360381019061021691906115eb565b610b1b565b005b610225610d2c565b005b61022f610e20565b005b61024b60048036038101906102469190611496565b610f14565b005b610255610f97565b60405161026291906116ab565b60405180910390f35b610273610fae565b6040516102809190611508565b60405180910390f35b600260003373ffffffffffffffffffffffffffffffffffffffff1673ffffffffffffffffffffffffffffffffffffffff16815260200190815260200160002060000160009054906101000a900460ff16610318576040517f08c379a000000000000000000000000000000000000000000000000000000000815260040161030f90611723565b60405180910390fd5b6003600581111561032c5761032b611634565b5b600460009054906101000a900460ff16600581111561034e5761034d611634565b5b1461038e576040517f08c379a0000000000000000000000000000000000000000000000000000000008152600401610385906117b5565b60405180910390fd5b6000600260003373ffffffffffffffffffffffffffffffffffffffff1673ffffffffffffffffffffffffffffffffffffffff16815260200190815260200160002090508060000160019054906101000a900460ff1615610423576040517f08c379a000000000000000000000000000000000000000000000000000000000815260040161041a90611821565b60405180910390fd5b60018160000160016101000a81548160ff0219169083151502179055508181600101819055506003828154811061045d5761045c611841565b5b9060005260206000209060020201600101600081548092919061047f9061189f565b91905055507f4d99b957a2bc29a30ebd96a7be8e68fe50a3c701db28a91436490b7d53870ca433836040516104b59291906118e7565b60405180910390a15050565b600260003373ffffffffffffffffffffffffffffffffffffffff1673ffffffffffffffffffffffffffffffffffffffff16815260200190815260200160002060000160009054906101000a900460ff16610550576040517f08c379a000000000000000000000000000000000000000000000000000000000815260040161054790611723565b60405180910390fd5b6001600581111561056457610563611634565b5b600460009054906101000a900460ff16600581111561058657610585611634565b5b146105c6576040517f08c379a00000000000000000000000000000000000000000000000000000000081526004016105bd90611982565b60405180910390fd5b6003604051806040016040528083815260200160008152509080600181540180825580915050600190039060005260206000209060020201600090919091909150600082015181600001908161061c9190611bae565b506020820151816001015550507f92e393e9b54e2f801d3ea4beb0c5e71a21cc34a5d34b77d0fb8a3aa1650dc18f600160038054905061065c9190611c80565b6040516106699190611508565b60405180910390a150565b61067c610fb7565b600460058111156106905761068f611634565b5b600460009054906101000a900460ff1660058111156106b2576106b1611634565b5b146106f2576040517f08c379a00000000000000000000000000000000000000000000000000000000081526004016106e990611d26565b60405180910390fd5b60008060005b60038054905081101561077157826003828154811061071a57610719611841565b5b906000526020600020906002020160010154111561075e576003818154811061074657610745611841565b5b90600052602060002090600202016001015492508091505b80806107699061189f565b9150506106f8565b50806001819055506005600460006101000a81548160ff0219169083600581111561079f5761079e611634565b5b02179055505050565b6107b0610fb7565b600160058111156107c4576107c3611634565b5b600460009054906101000a900460ff1660058111156107e6576107e5611634565b5b14610826576040517f08c379a000000000000000000000000000000000000000000000000000000000815260040161081d90611db8565b60405180910390fd5b6002600460006101000a81548160ff0219169083600581111561084c5761084b611634565b5b02179055507f0a97a4ee45751e2abf3e4fc8946939630b11b371ea8ae39ccdc3056e98f5cc3f6001600460009054906101000a900460ff16604051610892929190611dd8565b60405180910390a1565b6108a4610fb7565b6108ae6000611035565b565b60008060009054906101000a900473ffffffffffffffffffffffffffffffffffffffff16905090565b6108e1611101565b600382815481106108f5576108f4611841565b5b906000526020600020906002020160405180604001604052908160008201805461091e906119d1565b80601f016020809104026020016040519081016040528092919081815260200182805461094a906119d1565b80156109975780601f1061096c57610100808354040283529160200191610997565b820191906000526020600020905b81548152906001019060200180831161097a57829003601f168201915b505050505081526020016001820154815250509050919050565b6000600260008373ffffffffffffffffffffffffffffffffffffffff1673ffffffffffffffffffffffffffffffffffffffff16815260200190815260200160002060000160009054906101000a900460ff1615610a115760019050610a16565b600090505b919050565b610a23610fb7565b60036005811115610a3757610a36611634565b5b600460009054906101000a900460ff166005811115610a5957610a58611634565b5b14610a99576040517f08c379a0000000000000000000000000000000000000000000000000000000008152600401610a9090611e73565b60405180910390fd5b60048060006101000a81548160ff02191690836005811115610abe57610abd611634565b5b02179055507f0a97a4ee45751e2abf3e4fc8946939630b11b371ea8ae39ccdc3056e98f5cc3f6003600460009054906101000a900460ff16604051610b04929190611dd8565b60405180910390a1565b6000600380549050905090565b610b23610fb7565b60006005811115610b3757610b36611634565b5b600460009054906101000a900460ff166005811115610b5957610b58611634565b5b14610b99576040517f08c379a0000000000000000000000000000000000000000000000000000000008152600401610b9090611f05565b60405180910390fd5b60005b8151811015610d285760026000838381518110610bbc57610bbb611841565b5b602002602001015173ffffffffffffffffffffffffffffffffffffffff1673ffffffffffffffffffffffffffffffffffffffff16815260200190815260200160002060000160009054906101000a900460ff1615610c4f576040517f08c379a0000000000000000000000000000000000000000000000000000000008152600401610c4690611f71565b60405180910390fd5b600160026000848481518110610c6857610c67611841565b5b602002602001015173ffffffffffffffffffffffffffffffffffffffff1673ffffffffffffffffffffffffffffffffffffffff16815260200190815260200160002060000160006101000a81548160ff0219169083151502179055507fb6be2187d059cc2a55fe29e0e503b566e1e0f8c8780096e185429350acffd3dd828281518110610cf857610cf7611841565b5b6020026020010151604051610d0d9190611362565b60405180910390a18080610d209061189f565b915050610b9c565b5050565b610d34610fb7565b60006005811115610d4857610d47611634565b5b600460009054906101000a900460ff166005811115610d6a57610d69611634565b5b14610daa576040517f08c379a0000000000000000000000000000000000000000000000000000000008152600401610da190612003565b60405180910390fd5b6001600460006101000a81548160ff02191690836005811115610dd057610dcf611634565b5b02179055507f0a97a4ee45751e2abf3e4fc8946939630b11b371ea8ae39ccdc3056e98f5cc3f6000600460009054906101000a900460ff16604051610e16929190611dd8565b60405180910390a1565b610e28610fb7565b60026005811115610e3c57610e3b611634565b5b600460009054906101000a900460ff166005811115610e5e57610e5d611634565b5b14610e9e576040517f08c379a0000000000000000000000000000000000000000000000000000000008152600401610e9590612095565b60405180910390fd5b6003600460006101000a81548160ff02191690836005811115610ec457610ec3611634565b5b02179055507f0a97a4ee45751e2abf3e4fc8946939630b11b371ea8ae39ccdc3056e98f5cc3f6002600460009054906101000a900460ff16604051610f0a929190611dd8565b60405180910390a1565b610f1c610fb7565b600073ffffffffffffffffffffffffffffffffffffffff168173ffffffffffffffffffffffffffffffffffffffff1603610f8b576040517f08c379a0000000000000000000000000000000000000000000000000000000008152600401610f8290612127565b60405180910390fd5b610f9481611035565b50565b6000600460009054906101000a900460ff16905090565b60006001905090565b610fbf6110f9565b73ffffffffffffffffffffffffffffffffffffffff16610fdd6108b0565b73ffffffffffffffffffffffffffffffffffffffff1614611033576040517f08c379a000000000000000000000000000000000000000000000000000000000815260040161102a90612193565b60405180910390fd5b565b60008060009054906101000a900473ffffffffffffffffffffffffffffffffffffffff169050816000806101000a81548173ffffffffffffffffffffffffffffffffffffffff021916908373ffffffffffffffffffffffffffffffffffffffff1602179055508173ffffffffffffffffffffffffffffffffffffffff168173ffffffffffffffffffffffffffffffffffffffff167f8be0079c531659141344cd1fd0a4f28419497f9722a3daafe3b4186f6b6457e060405160405180910390a35050565b600033905090565b604051806040016040528060608152602001600081525090565b6000604051905090565b600080fd5b600080fd5b6000819050919050565b6111428161112f565b811461114d57600080fd5b50565b60008135905061115f81611139565b92915050565b60006020828403121561117b5761117a611125565b5b600061118984828501611150565b91505092915050565b600080fd5b600080fd5b6000601f19601f8301169050919050565b7f4e487b7100000000000000000000000000000000000000000000000000000000600052604160045260246000fd5b6111e58261119c565b810181811067ffffffffffffffff82111715611204576112036111ad565b5b80604052505050565b600061121761111b565b905061122382826111dc565b919050565b600067ffffffffffffffff821115611243576112426111ad565b5b61124c8261119c565b9050602081019050919050565b82818337600083830152505050565b600061127b61127684611228565b61120d565b90508281526020810184848401111561129757611296611197565b5b6112a2848285611259565b509392505050565b600082601f8301126112bf576112be611192565b5b81356112cf848260208601611268565b91505092915050565b6000602082840312156112ee576112ed611125565b5b600082013567ffffffffffffffff81111561130c5761130b61112a565b5b611318848285016112aa565b91505092915050565b600073ffffffffffffffffffffffffffffffffffffffff82169050919050565b600061134c82611321565b9050919050565b61135c81611341565b82525050565b60006020820190506113776000830184611353565b92915050565b600081519050919050565b600082825260208201905092915050565b60005b838110156113b757808201518184015260208101905061139c565b60008484015250505050565b60006113ce8261137d565b6113d88185611388565b93506113e8818560208601611399565b6113f18161119c565b840191505092915050565b6114058161112f565b82525050565b6000604083016000830151848203600086015261142882826113c3565b915050602083015161143d60208601826113fc565b508091505092915050565b60006020820190508181036000830152611462818461140b565b905092915050565b61147381611341565b811461147e57600080fd5b50565b6000813590506114908161146a565b92915050565b6000602082840312156114ac576114ab611125565b5b60006114ba84828501611481565b91505092915050565b60008115159050919050565b6114d8816114c3565b82525050565b60006020820190506114f360008301846114cf565b92915050565b6115028161112f565b82525050565b600060208201905061151d60008301846114f9565b92915050565b600067ffffffffffffffff82111561153e5761153d6111ad565b5b602082029050602081019050919050565b600080fd5b600061156761156284611523565b61120d565b9050808382526020820190506020840283018581111561158a5761158961154f565b5b835b818110156115b3578061159f8882611481565b84526020840193505060208101905061158c565b5050509392505050565b600082601f8301126115d2576115d1611192565b5b81356115e2848260208601611554565b91505092915050565b60006020828403121561160157611600611125565b5b600082013567ffffffffffffffff81111561161f5761161e61112a565b5b61162b848285016115bd565b91505092915050565b7f4e487b7100000000000000000000000000000000000000000000000000000000600052602160045260246000fd5b6006811061167457611673611634565b5b50565b600081905061168582611663565b919050565b600061169582611677565b9050919050565b6116a58161168a565b82525050565b60006020820190506116c0600083018461169c565b92915050565b600082825260208201905092915050565b7f596f7520617265206e6f74207265676973746572656420746f20766f74652e00600082015250565b600061170d601f836116c6565b9150611718826116d7565b602082019050919050565b6000602082019050818103600083015261173c81611700565b9050919050565b7f54686520766f74696e672073657373696f6e206973206e6f742061637469766560008201527f2e00000000000000000000000000000000000000000000000000000000000000602082015250565b600061179f6021836116c6565b91506117aa82611743565b604082019050919050565b600060208201905081810360008301526117ce81611792565b9050919050565b7f596f75206861766520616c726561647920766f7465642e000000000000000000600082015250565b600061180b6017836116c6565b9150611816826117d5565b602082019050919050565b6000602082019050818103600083015261183a816117fe565b9050919050565b7f4e487b7100000000000000000000000000000000000000000000000000000000600052603260045260246000fd5b7f4e487b7100000000000000000000000000000000000000000000000000000000600052601160045260246000fd5b60006118aa8261112f565b91507fffffffffffffffffffffffffffffffffffffffffffffffffffffffffffffffff82036118dc576118db611870565b5b600182019050919050565b60006040820190506118fc6000830185611353565b61190960208301846114f9565b9392505050565b7f50726f706f73616c7320726567697374726174696f6e206973206e6f7420616360008201527f746976652e000000000000000000000000000000000000000000000000000000602082015250565b600061196c6025836116c6565b915061197782611910565b604082019050919050565b6000602082019050818103600083015261199b8161195f565b9050919050565b7f4e487b7100000000000000000000000000000000000000000000000000000000600052602260045260246000fd5b600060028204905060018216806119e957607f821691505b6020821081036119fc576119fb6119a2565b5b50919050565b60008190508160005260206000209050919050565b60006020601f8301049050919050565b600082821b905092915050565b600060088302611a647fffffffffffffffffffffffffffffffffffffffffffffffffffffffffffffffff82611a27565b611a6e8683611a27565b95508019841693508086168417925050509392505050565b6000819050919050565b6000611aab611aa6611aa18461112f565b611a86565b61112f565b9050919050565b6000819050919050565b611ac583611a90565b611ad9611ad182611ab2565b848454611a34565b825550505050565b600090565b611aee611ae1565b611af9818484611abc565b505050565b5b81811015611b1d57611b12600082611ae6565b600181019050611aff565b5050565b601f821115611b6257611b3381611a02565b611b3c84611a17565b81016020851015611b4b578190505b611b5f611b5785611a17565b830182611afe565b50505b505050565b600082821c905092915050565b6000611b8560001984600802611b67565b1980831691505092915050565b6000611b9e8383611b74565b9150826002028217905092915050565b611bb78261137d565b67ffffffffffffffff811115611bd057611bcf6111ad565b5b611bda82546119d1565b611be5828285611b21565b600060209050601f831160018114611c185760008415611c06578287015190505b611c108582611b92565b865550611c78565b601f198416611c2686611a02565b60005b82811015611c4e57848901518255600182019150602085019450602081019050611c29565b86831015611c6b5784890151611c67601f891682611b74565b8355505b6001600288020188555050505b505050505050565b6000611c8b8261112f565b9150611c968361112f565b9250828203905081811115611cae57611cad611870565b5b92915050565b7f54686520766f74696e672073657373696f6e206973207374696c6c206163746960008201527f76652e0000000000000000000000000000000000000000000000000000000000602082015250565b6000611d106023836116c6565b9150611d1b82611cb4565b604082019050919050565b60006020820190508181036000830152611d3f81611d03565b9050919050565b7f43616e6e6f7420656e642070726f706f73616c7320726567697374726174696f60008201527f6e20617420746869732074696d652e0000000000000000000000000000000000602082015250565b6000611da2602f836116c6565b9150611dad82611d46565b604082019050919050565b60006020820190508181036000830152611dd181611d95565b9050919050565b6000604082019050611ded600083018561169c565b611dfa602083018461169c565b9392505050565b7f43616e6e6f7420656e6420766f74696e672073657373696f6e2061742074686960008201527f732074696d652e00000000000000000000000000000000000000000000000000602082015250565b6000611e5d6027836116c6565b9150611e6882611e01565b604082019050919050565b60006020820190508181036000830152611e8c81611e50565b9050919050565b7f43616e6e6f7420726567697374657220766f746572732061742074686973207460008201527f696d652e00000000000000000000000000000000000000000000000000000000602082015250565b6000611eef6024836116c6565b9150611efa82611e93565b604082019050919050565b60006020820190508181036000830152611f1e81611ee2565b9050919050565b7f566f74657220616c726561647920726567697374657265642e00000000000000600082015250565b6000611f5b6019836116c6565b9150611f6682611f25565b602082019050919050565b60006020820190508181036000830152611f8a81611f4e565b9050919050565b7f43616e6e6f742073746172742070726f706f73616c732072656769737472617460008201527f696f6e20617420746869732074696d652e000000000000000000000000000000602082015250565b6000611fed6031836116c6565b9150611ff882611f91565b604082019050919050565b6000602082019050818103600083015261201c81611fe0565b9050919050565b7f43616e6e6f7420737461727420766f74696e672073657373696f6e206174207460008201527f6869732074696d652e0000000000000000000000000000000000000000000000602082015250565b600061207f6029836116c6565b915061208a82612023565b604082019050919050565b600060208201905081810360008301526120ae81612072565b9050919050565b7f4f776e61626c653a206e6577206f776e657220697320746865207a65726f206160008201527f6464726573730000000000000000000000000000000000000000000000000000602082015250565b60006121116026836116c6565b915061211c826120b5565b604082019050919050565b6000602082019050818103600083015261214081612104565b9050919050565b7f4f776e61626c653a2063616c6c6572206973206e6f7420746865206f776e6572600082015250565b600061217d6020836116c6565b915061218882612147565b602082019050919050565b600060208201905081810360008301526121ac81612170565b905091905056fea264697066735822122079651843e634d38332ed9617253ccd9b927ccb9ef1585c1b9a96a9d71de0e59164736f6c63430008130033",
  "immutableReferences": {},
  "source": "// SPDX-License-Identifier: GPL-3.0\r\npragma solidity ^0.8.4;\r\n\r\nimport \"@openzeppelin/contracts/access/Ownable.sol\";\r\n\r\n/// @title A voting system\r\n/// @author Wsh on est vraiment 8 ? / Modified by Nathan\r\n/// @notice This system permit users to make proposals and vote them\r\ncontract Voting is Ownable {\r\n\r\n    // Structures de donnes\r\n\r\n    struct Voter {\r\n        bool isRegistered;\r\n        bool hasVoted;\r\n        uint votedProposalId;\r\n    }\r\n\r\n    struct Proposal {\r\n        string description;\r\n        uint voteCount;\r\n    }\r\n\r\n    // numration des tats du processus de vote\r\n\r\n    enum WorkflowStatus {\r\n        RegisteringVoters,\r\n        ProposalsRegistrationStarted,\r\n        ProposalsRegistrationEnded,\r\n        VotingSessionStarted,\r\n        VotingSessionEnded,\r\n        VotesTallied\r\n    }\r\n\r\n    uint winningProposalId;\r\n\r\n    // vnements\r\n\r\n    event VoterRegistered(address voterAddress);\r\n    event WorkflowStatusChange(WorkflowStatus previousStatus, WorkflowStatus newStatus);\r\n    event ProposalRegistered(uint proposalId);\r\n    event Voted (address voter, uint proposalId);\r\n\r\n    // Variables d'tat\r\n\r\n    mapping(address => Voter) voters;\r\n    Proposal[] proposals;\r\n    WorkflowStatus currentWorkflowStatus;\r\n\r\n    // Modificateurs\r\n\r\n    modifier onlyVoters() {\r\n        require(voters[msg.sender].isRegistered, \"You are not registered to vote.\");\r\n        _;\r\n    }\r\n\r\n    modifier onlyDuringVotingSession() {\r\n        require(currentWorkflowStatus == WorkflowStatus.VotingSessionStarted, \"The voting session is not active.\");\r\n        _;\r\n    }\r\n\r\n    modifier onlyAfterVotingSessionEnded() {\r\n        require(currentWorkflowStatus == WorkflowStatus.VotingSessionEnded, \"The voting session is still active.\");\r\n        _;\r\n    }\r\n\r\n    modifier onlyDuringProposalsRegistration() {\r\n        require(currentWorkflowStatus == WorkflowStatus.ProposalsRegistrationStarted, \"Proposals registration is not active.\");\r\n        _;\r\n    }\r\n\r\n    modifier onlyAfterProposalsRegistrationEnded() {\r\n        require(currentWorkflowStatus == WorkflowStatus.ProposalsRegistrationEnded, \"Proposals registration is still active.\");\r\n        _;\r\n    }\r\n\r\n    /// @notice Is address a voter\r\n    /// @param _address : Address of voter\r\n    /// @return bool : is voter\r\n    function isVoter(address _address) external view returns (bool){\r\n        if (voters[_address].isRegistered) {\r\n            return true;\r\n        }\r\n        return false;\r\n    }\r\n\r\n    /// @notice Get workflow status\r\n    /// @return WorkflowStatus : current status\r\n    function getWorkflowStatus() external view returns (WorkflowStatus) {\r\n        return currentWorkflowStatus;\r\n    }\r\n\r\n    /// @notice Get a proposal by id\r\n    /// @param _proposalId : Id of the proposal\r\n    /// @return Proposal : Proposal object\r\n    function getOneProposal(uint _proposalId) external view returns (Proposal memory){\r\n        return proposals[_proposalId];\r\n    }\r\n\r\n    /// @notice Get proposal array length to get array in front\r\n    /// @custom:accessibility External\r\n    function getProposalsLength() external view returns (uint){\r\n        return proposals.length;\r\n    }\r\n\r\n    // Fonctions d'administration\r\n\r\n    /// @notice Register voters\r\n    /// @param _voters : Address of voters\r\n    /// @custom:accessibility Admin\r\n    function registerVoters(address[] memory _voters) external onlyOwner {\r\n        // Vrifie que l'tat courant du workflow est en cours d'inscription des lecteurs.\r\n        require(currentWorkflowStatus == WorkflowStatus.RegisteringVoters, \"Cannot register voters at this time.\");\r\n        // Boucle sur la liste des adresses d'lecteurs fournie et vrifie que chaque lecteur n'est pas dj enregistr.\r\n        for (uint i = 0; i < _voters.length; i++) {\r\n            require(!voters[_voters[i]].isRegistered, \"Voter already registered.\");\r\n            // Enregistre l'lecteur comme tant enregistr.\r\n            voters[_voters[i]].isRegistered = true;\r\n            // met un vnement pour signaler que l'lecteur a t enregistr.\r\n            emit VoterRegistered(_voters[i]);\r\n        }\r\n    }\r\n\r\n    /// @notice Start proposal session\r\n    /// @custom:accessibility Admin\r\n    function startProposalsRegistration() external onlyOwner {\r\n        // Vrifie que l'tat courant du workflow est en cours d'inscription des lecteurs.\r\n        require(currentWorkflowStatus == WorkflowStatus.RegisteringVoters, \"Cannot start proposals registration at this time.\");\r\n        // Modifie l'tat courant du workflow pour indiquer que l'inscription des propositions a commenc.\r\n        currentWorkflowStatus = WorkflowStatus.ProposalsRegistrationStarted;\r\n        // met un vnement pour signaler que l'tat du workflow a chang.\r\n        emit WorkflowStatusChange(WorkflowStatus.RegisteringVoters, currentWorkflowStatus);\r\n    }\r\n\r\n    /// @notice End proposal session\r\n    /// @custom:accessibility Admin\r\n    function endProposalsRegistration() external onlyOwner {\r\n        // Vrifie que l'tat courant du workflow est en cours d'inscription des propositions.\r\n        require(currentWorkflowStatus == WorkflowStatus.ProposalsRegistrationStarted, \"Cannot end proposals registration at this time.\");\r\n        // Modifie l'tat courant du workflow pour indiquer que l'inscription des propositions est termine.\r\n        currentWorkflowStatus = WorkflowStatus.ProposalsRegistrationEnded;\r\n        // met un vnement pour signaler que l'tat du workflow a chang.\r\n        emit WorkflowStatusChange(WorkflowStatus.ProposalsRegistrationStarted, currentWorkflowStatus);\r\n    }\r\n\r\n    /// @notice Start voting session\r\n    /// @custom:accessibility Admin\r\n    function startVotingSession() external onlyOwner {\r\n        // Vrifie que l'tat courant du workflow est l'inscription des propositions termine.\r\n        require(currentWorkflowStatus == WorkflowStatus.ProposalsRegistrationEnded, \"Cannot start voting session at this time.\");\r\n        // Modifie l'tat courant du workflow pour indiquer que la session de vote a commenc.\r\n        currentWorkflowStatus = WorkflowStatus.VotingSessionStarted;\r\n        // met un vnement pour signaler que l'tat du workflow a chang.\r\n        emit WorkflowStatusChange(WorkflowStatus.ProposalsRegistrationEnded, currentWorkflowStatus);\r\n    }\r\n\r\n    /// @notice End voting session\r\n    /// @custom:accessibility Admin\r\n    function endVotingSession() external onlyOwner {\r\n        // Vrifie que l'tat courant du workflow est la session de vote en cours.\r\n        require(currentWorkflowStatus == WorkflowStatus.VotingSessionStarted, \"Cannot end voting session at this time.\");\r\n        // Modifie l'tat courant du workflow pour indiquer que la session de vote est termine.\r\n        currentWorkflowStatus = WorkflowStatus.VotingSessionEnded;\r\n        // met un vnement pour signaler que l'tat du workflow a chang.\r\n        emit WorkflowStatusChange(WorkflowStatus.VotingSessionStarted, currentWorkflowStatus);\r\n    }\r\n\r\n    /// @notice For users to register proposal\r\n    /// @param _description : Description of their proposal\r\n    /// @custom:accessibility Voters\r\n    function registerProposal(string memory _description) external onlyVoters onlyDuringProposalsRegistration {\r\n        // La fonction permet  un lecteur enregistr de proposer une nouvelle proposition pendant la priode d'enregistrement des propositions.\r\n        proposals.push(Proposal({\r\n            description: _description,\r\n            voteCount: 0\r\n        }));\r\n        // Ajouter une nouvelle proposition  la liste des propositions existantes et mettre un vnement.\r\n        emit ProposalRegistered(proposals.length - 1);\r\n    }\r\n\r\n    /// @notice For users to vote\r\n    /// @param _proposalId : Id of proposal\r\n    /// @custom:accessibility Voters\r\n    function vote(uint _proposalId) external onlyVoters onlyDuringVotingSession {\r\n        // Rcupre le votant actuel depuis le mapping de votants\r\n        Voter storage voter = voters[msg.sender];\r\n        // Vrifie si le votant n'a pas dj vot\r\n        require(!voter.hasVoted, \"You have already voted.\");\r\n        // Enregistre le vote et le votant dans les mappings correspondants\r\n        voter.hasVoted = true;\r\n        voter.votedProposalId = _proposalId;\r\n        // Incrmente le compteur de votes pour la proposition correspondante\r\n        proposals[_proposalId].voteCount++;\r\n        // met un vnement pour signaler que le votant a vot pour la proposition correspondante\r\n        emit Voted(msg.sender, _proposalId);\r\n    }\r\n\r\n    /// @notice Tally votes after ending voting session\r\n    /// @custom:accessibility Admin\r\n    function tallyVotes() external onlyOwner onlyAfterVotingSessionEnded {\r\n        // Initialise le compteur de votes gagnants  zro et l'indice de la proposition gagnante  zro\r\n        uint winningVoteCount = 0;\r\n        uint winningProposalIndex = 0;\r\n        // Parcourt toutes les propositions enregistres\r\n        for (uint i = 0; i < proposals.length; i++) {\r\n            // Si le nombre de votes pour la proposition actuelle est suprieur au nombre de votes gagnants, alors la proposition actuelle devient la proposition gagnante\r\n            if (proposals[i].voteCount > winningVoteCount) {\r\n                winningVoteCount = proposals[i].voteCount;\r\n                winningProposalIndex = i;\r\n            }\r\n        }\r\n        // Enregistre l'ID de la proposition gagnante et met  jour le statut de workflow\r\n        winningProposalId = winningProposalIndex;\r\n        currentWorkflowStatus = WorkflowStatus.VotesTallied;\r\n    }\r\n\r\n    function test() external pure returns (uint) {\r\n        return 1;\r\n    }\r\n\r\n}\r\n",
  "sourcePath": "C:\\Users\\Nathan\\IdeaProjects\\blockchain-vote-svelte\\back\\contracts\\Voting.sol",
  "compiler": {
    "name": "solc",
    "version": "0.8.19+commit.7dd6d404.Emscripten.clang"
  },
  "schemaVersion": "3.4.13",
  "updatedAt": "2023-05-10T01:24:25.143Z",
  "networkType": "ethereum",
  "devdoc": {
    "author": "Wsh on est vraiment 8 ? / Modified by Nathan",
    "kind": "dev",
    "methods": {
      "endProposalsRegistration()": {
        "custom:accessibility": "Admin"
      },
      "endVotingSession()": {
        "custom:accessibility": "Admin"
      },
      "getOneProposal(uint256)": {
        "params": {
          "_proposalId": ": Id of the proposal"
        },
        "returns": {
          "_0": "Proposal : Proposal object"
        }
      },
      "getProposalsLength()": {
        "custom:accessibility": "External"
      },
      "getWorkflowStatus()": {
        "returns": {
          "_0": "WorkflowStatus : current status"
        }
      },
      "isVoter(address)": {
        "params": {
          "_address": ": Address of voter"
        },
        "returns": {
          "_0": "bool : is voter"
        }
      },
      "owner()": {
        "details": "Returns the address of the current owner."
      },
      "registerProposal(string)": {
        "custom:accessibility": "Voters",
        "params": {
          "_description": ": Description of their proposal"
        }
      },
      "registerVoters(address[])": {
        "custom:accessibility": "Admin",
        "params": {
          "_voters": ": Address of voters"
        }
      },
      "renounceOwnership()": {
        "details": "Leaves the contract without owner. It will not be possible to call `onlyOwner` functions anymore. Can only be called by the current owner. NOTE: Renouncing ownership will leave the contract without an owner, thereby removing any functionality that is only available to the owner."
      },
      "startProposalsRegistration()": {
        "custom:accessibility": "Admin"
      },
      "startVotingSession()": {
        "custom:accessibility": "Admin"
      },
      "tallyVotes()": {
        "custom:accessibility": "Admin"
      },
      "transferOwnership(address)": {
        "details": "Transfers ownership of the contract to a new account (`newOwner`). Can only be called by the current owner."
      },
      "vote(uint256)": {
        "custom:accessibility": "Voters",
        "params": {
          "_proposalId": ": Id of proposal"
        }
      }
    },
    "title": "A voting system",
    "version": 1
  },
  "userdoc": {
    "kind": "user",
    "methods": {
      "endProposalsRegistration()": {
        "notice": "End proposal session"
      },
      "endVotingSession()": {
        "notice": "End voting session"
      },
      "getOneProposal(uint256)": {
        "notice": "Get a proposal by id"
      },
      "getProposalsLength()": {
        "notice": "Get proposal array length to get array in front"
      },
      "getWorkflowStatus()": {
        "notice": "Get workflow status"
      },
      "isVoter(address)": {
        "notice": "Is address a voter"
      },
      "registerProposal(string)": {
        "notice": "For users to register proposal"
      },
      "registerVoters(address[])": {
        "notice": "Register voters"
      },
      "startProposalsRegistration()": {
        "notice": "Start proposal session"
      },
      "startVotingSession()": {
        "notice": "Start voting session"
      },
      "tallyVotes()": {
        "notice": "Tally votes after ending voting session"
      },
      "vote(uint256)": {
        "notice": "For users to vote"
      }
    },
    "notice": "This system permit users to make proposals and vote them",
    "version": 1
  }
}